:1000000000000110E500000075010000590100002A
:100010007501000075010000750100007501000008
:10002000750100007501000075010000A91A0000AB
:100030007501000075010000AD1A0000B11A000042
:100040002D3900002D3900002D3900002D39000018
:100050002D3900002D3900002D3900002D39000008
:100060002D3900002D3900002D3900002D390000F8
:100070002D3900002D3900002D3900002D390000E8
:100080002D3900002D3900002D3900002D390000D8
:100090002D3900002D3900002D3900002D390000C8
:1000A0002D3900002D3900002D3900002D390000B8
:1000B0002D3900002D3900002D3900002D390000A8
:1000C0002D3900002D3900002D3900002D39000098
:1000D0002D3900002D3900002D3900002D39000088
:1000E0002D39000008B500F057F900F073F900F061
:1000F0007BF900F09BF800F095F801F021FA01F08F
:1001000051F900F0BFF840B141F28734002501F009
:1001100043FA8D4208BF8442F9D200F082F918B93F
:100120000849094805F0EEF80649084805F0EAF8DC
:1001300001F05AFA064B07481B68D96804F066F8C4
:10014000FEE700BF60A000006CA0000099A00000C6
:1001500080010010B1A000001EF0040F0CBFEFF3EF
:100160000880EFF309808169004A1047D10100003F
:100170007047FFFF38B50F4C0F4B10481D782368B0
:10018000D96804F043F823680D49D8682A4603F07B
:10019000C5FF0F2D236807D80A4A0B4952F82520BE
:1001A000D86803F0BBFFFEE7D968084804F02EF8D2
:1001B000F9E700BF8001001004ED00E0ECA00000B2
:1001C00006A10000F8A1000040A100005EA100000F
:1001D00010B5044600F04AF8236883606368C36082
:1001E000A3680361E3684361236943626369013B78
:1001F000C361A3698361E3690362BFF34F8F05495C
:10020000054BCA6802F4E0621343CB60BFF34F8F23
:1002100000BFFDE700ED00E00400FA05004870476C
:1002200000D8B8050048704700D8B8050E4B072223
:10023000C3F88420AA210122C3F88020C3F88C10BF
:100240005521C3F88C10C3F8A821D3F88820520593
:10025000FBD51A6822F4704242F480421A6040F2E0
:100260000112C3F80421704700C00F400248034A3E
:10027000034BC0E90023704700000020EFBEADDE55
:100280001041522138B5224C224B22689A423DD16E
:100290006268214B9A4239D1204D21482B68D96898
:1002A00003F0B4FF2B68A2691E49D86803F036FF3B
:1002B0002B68E2691C49D86803F030FF2B68226A7A
:1002C0001A49D86803F02AFF2B68A2681849D86831
:1002D00003F024FF2B68E2681649D86803F01EFF7C
:1002E0002B6822691449D86803F018FF2B686269EB
:1002F0001249D86803F012FF2B681148D96803F03F
:1003000085FF01200023C4E9003338BD0020F9E750
:1003100000000020EFBEADDE104152218001001030
:1003200038A200008BA200009AA20000A9A200003F
:10033000B8A20000C7A20000D6A20000E5A20000FB
:10034000F4A200000E4A136810B50E4C1918A14211
:10035000116002D30C4CA1420BD313600B4A0C4921
:1003600013681844884208D30A49884205D21060AD
:1003700001E0002BF2D0184610BD0023FBE700BFC0
:100380000000001028000020008000200400001061
:10039000F012001000000110094A0A4B0A498B4272
:1003A00005D30A4B0A4A0021934205D3704712F83D
:1003B000010B03F8010BF2E703F8011BF4E700BFA0
:1003C000DCB40000000000105403001058030010BB
:1003D000F0120010034AD2F8883043F47003C2F8D8
:1003E0008830704700ED00E0044800232021C21847
:1003F0000133292B82F80013F9D1704700E100E0A6
:1004000008B52A2219233821022003F081FA0D228F
:100410003821022003F038FAA0F12A03584258414B
:1004200008BDFFF7EDBF42884378007843EA022316
:1004300040EA0320704710B5024410F8013B11F860
:10044000014B9042A3EB040301D0002BF5D01846DA
:1004500010BD02684AB1134613F8011B1F290BD9BE
:100460003A29F9D1911C8B4202D04FF0FF307047EE
:100470001278302AF9D103600020704770B500F17E
:100480003806426B044601233146407800F05AFAA0
:10049000054688B9616BA36A226AE070CB1A934261
:1004A00008D2A378022B05D10A4401233146607893
:1004B00000F048FA284670BD0125FBE738B5436BCC
:1004C0008B4204460D4619D0C3788BB901232A46C6
:1004D00004F13801607800F021FA002818BF4FF0CD
:1004E000FF35034665630CBF03460123184638BD3C
:1004F000FFF7C4FF03460028F8D1E7E70023F5E73C
:1005000038B50023C3704FF0FF3343630546FFF750
:10051000D5FF044618BB95F8372295F8363243EAE2
:1005200002234AF6552293421BD195F83830EB2B23
:1005300003D01833DBB2012B15D803220B4905F188
:100540006E00FFF778FF40B10522094905F18A00E6
:10055000FFF771FF002818BF0224204638BD04248D
:10056000FBE70324F9E70224F7E700BFC8A3000074
:10057000CCA300002DE9F043002385B00B600F46AB
:100580001546FFF766FF061EC0F23981A44B53F8EB
:100590002640002C00F03581206900F09EF90028EB
:1005A00000F031813C60237805F0FE056BB1607886
:1005B00000F0AFF9C10708D41DB110F0040500D058
:1005C0000A25284605B0BDE8F0830023F0B2237069
:1005D000607000F090F9C20700F117810DB1430778
:1005E000EED400212046FFF78BFF022840F0EE807A
:1005F0006F4604F5FF7104F23E263D4611F8040CE7
:1006000010B10846FFF70FFF10318E4245F8040B7A
:10061000F4D1002557F8046B002E00F0CE8031464F
:100620002046FFF76DFF012800F2C88094F84420AF
:1006300094F8433043EA0223B3F5007F40F0CA80C8
:1006400094F84F3094F84E5055EA032504D104F144
:100650005C00FFF7E8FE054694F8481025624B1E43
:10066000012BA17000F2B68094F845901FFA89F32F
:100670006381002B00F0AE8009F1FF3313EA090F0C
:1006800040F0A88094F84A3094F8497047EA03276C
:100690003FB21FFA87F818F00F0FA4F8088040F057
:1006A000998094F84C3094F84B0050EA032003D121
:1006B00004F15800FFF7B7FE94F8472094F846304D
:1006C00053EA022300F0868005FB01FC03EB1812BD
:1006D000624490427ED3801A4845B0FBF9F179D349
:1006E0005048814276D84FF6F570814240F28F80B3
:1006F0004FF00309023133443244B9F1030FE16191
:100700006662A362226369D194F8632094F8623030
:1007100043EA02231F433FB2002F5BD104F1640080
:10072000FFF781FEE062890001F2FF11B5EB512F66
:1007300050D34FF0FF33C4E90533B9F1030F4FF045
:10074000800323712FD194F8692094F8683043EA2C
:100750000223012B27D1711C2046FFF7AFFE10BBEF
:1007600094F8372294F83632207143EA02234AF68D
:100770005522934217D104F13800FFF754FE2A4B5B
:10078000984210D104F50770FFF74DFE274B9842B1
:1007900009D104F50870FFF746FEA06104F5097061
:1007A000FFF741FE6061224A84F80090138801330C
:1007B0009BB21380E380002503E703200135042D5D
:1007C0007FF428AF042805D10125FAE60428FBD0E0
:1007D000012801D90D25F4E6002627E7B8F1000F1E
:1007E000F8D06344B9F1020FE3624FEA41031BBF43
:1007F0005B1801F00101194601EB530194E70B2549
:10080000DFE60C25DDE60F25DBE60325D9E640F61D
:10081000F57949458CBF4FF002094FF0010969E7AE
:1008200058030010F5FFFF0F52526141727241618F
:100830005C03001040B1A1F10B03012B04D90F2977
:1008400002D0006900F052B87047FFFFF0B585B0E4
:10085000CDE9001003A814460391FFF7FAFD051E29
:1008600028DB154F57F825604EB1306900F030F89D
:1008700018B90224204605B0F0BD00233370019959
:1008800079B9019B47F82530002CF3D001A900224B
:100890006846FFF76FFE044601460198FFF7CAFF5E
:1008A000E8E7002301F8103BE8B200F007F8002861
:1008B000E7D1DEE70B24DDE75803001010B5012077
:1008C0000C4601F0F6FC2060003018BF012010BD7E
:1008D00008B501F05DFF012008BD08B540F6B8314C
:1008E00001F048FE431E5842584108BD00231A46F5
:1008F000194601F01BBC10B5044600F0E3FD34B905
:1009000000F0FAF8044600F0F7FD204610BD04247C
:10091000F9E708B900F08EB904207047F8B507462A
:100920000C4615461E4600F0CDFD4FB92046F2B2EA
:10093000294600F087F9044600F0DEFD2046F8BDA8
:100940000424F9E7F8B507460C4615461E4600F0A4
:10095000B9FD4FB92046F2B2294600F0B9F9044674
:1009600000F0CAFD2046F8BD0424F9E738B500F0D0
:1009700013FE00F5FA75FF2003F0B2F8FF2003F034
:10098000AFF8FF28044603D000F006FE8542F5D8F4
:10099000204638BD08B502F0C5FCFFF7E7FF02F0BE
:1009A000C9FC034A137843F00103137008BD00BF6C
:1009B0000800001038B505460C46FFF7D7FFFF28A2
:1009C00021D1204603F08CF8FD2C1ED0AC1C05F282
:1009D000022514F8020C03F083F8023414F8030C17
:1009E00003F07EF8AC42F4D1FF2003F079F8FF2049
:1009F00003F076F8FF2003F073F800F01F00431FA8
:100A00005842584138BD0020FCE70120FAE737B5CD
:100A1000020604460D4607D500217720FFF7F7FFB1
:100A2000012831D804F07F0402F084FC02F07AFC43
:100A3000FFF79CFFFF282BD1402C27D0482C0CBF60
:100A4000872301232A0E8DF801202A0C8DF802201D
:100A500006212A0A68468DF800408DF803208DF89B
:100A600004508DF8053003F045F84C2C02D1FF20DE
:100A700003F036F80A24FF2003F032F8030603D50A
:100A8000013C14F0FF04F6D103B030BD9523D9E743
:100A9000FF20F9E770B5054600F07EFD00F1640621
:100AA000FF2003F01DF8044600F076FD864201D3D6
:100AB000FF2CF5D0FE2C0CD14FF40071284603F02A
:100AC0001CF8FF2003F00CF8FF2003F009F80120C8
:100AD00070BD0020FCE7FFFF38B5064D2C78E4B26E
:100AE00002F030FC18B104F0FD042C7038BD44F065
:100AF0000304FAE7080000102DE9F341FFF7ECFFCB
:100B00004A4B1A7812F0020F1E4604D01878C0B271
:100B100002B0BDE8F081C82002F0AAFF0A25FF203C
:100B2000013D02F0DDFF15F0FF05F8D102F0FAFB00
:100B300029464020FFF76BFF0128044671D100F0E1
:100B40002BFD4FF4D57100F57A774820FFF75FFF52
:100B5000012848D101ADA8460424FF2002F0C0FFBF
:100B6000013C14F0FF0408F8010BF6D19DF80630A3
:100B7000012B56D19DF80730AA2B52D100F00CFD65
:100B8000874206D94FF08041E920FFF740FF002857
:100B9000F4D100F001FD874243D900217A20FFF70C
:100BA00036FF00283DD10424FF2002F099FF013CCC
:100BB00014F0FF0405F8010BF6D19DF8043013F092
:100BC000400F14BF0C240424194B1C7002F0B2FB1C
:100BD0004CB3337845F6C05003F0FE03337002F097
:100BE00047FF307893E72946E920FFF710FF0228F6
:100BF00036BFE9254125022400F0CEFC874205D905
:100C000000212846FFF703FF0028F5D100F0C4FCBF
:100C1000874206D84FF400715020FFF7F8FE0028F5
:100C2000D2D00024D0E7FFF7B5FEDAE708000010C5
:100C30005E03001008B5FFF74FFF014B187808BDA1
:100C40000800001070B5144605460E46FFF744FF35
:100C5000002C35D01C4B1B78DA0733D402F062FB32
:100C60001A4B1B781B0758BF7602012C314611D155
:100C70005120FFF7CCFE38B94FF400712846FFF73A
:100C800009FFB0FA80F4640902F054FB201C18BF7D
:100C9000012070BD5220FFF7BAFE0028F4D14FF4B6
:100CA00000712846FFF7F6FE28B1013C14F0FF045E
:100CB00005F50075F3D100214C20FFF7A8FEE3E70E
:100CC0000420E6E70320E4E7080000105E030010BC
:100CD00070B5144605460E46FFF7FEFE002C41D0C7
:100CE000234B1A78D0073FD41B7859073ED402F023
:100CF00019FB204B1B781A0758BF7602012C11D123
:100D000031465820FFF783FE50BBFE212846FFF7EF
:100D100051FEB0FA80F4640902F00CFB201C18BFED
:100D2000012070BD13F0060F03D02146D720FFF736
:100D30006EFE31465920FFF76AFE0028ECD1FC21F7
:100D40002846FFF737FE28B1013C14F0FF0405F5F3
:100D50000075F4D1FD210020FFF72CFE0028DBD127
:100D60000124D9E70420DCE70320DAE70220D8E7F2
:100D7000080000105E03001008B5064604F085FC6C
:100D800000240546A54200DCFEE7315D002002F0AC
:100D90009FFF0134F6E7FFFF02280CD9074B1B68C1
:100DA0005A68824207D09A68824204D0DB681B1AD4
:100DB0005842584170470120704700BF8001001021
:100DC000F8B504460E461546FFF7E6FF48B3164B46
:100DD0001B68DB68A34210D0A31E5C425C4102F09A
:100DE000EFF80746002002F02DFF022F17D1B0B117
:100DF000ACB9A54203DC2846F8BD0124EFE7315D1C
:100E00004FF0FF32002002F0C5FF0134F1E7315D01
:100E1000002002F05DFF0134A542F8DCEBE700247E
:100E2000FAE70248FFF7A8FF8001001004A40000C1
:100E300008B5FFF7B1FF18B1002002F081FF08BD2F
:100E40000148FFF799FF00BFD2A300002DE9F84F3A
:100E500006461446884610461B49DFF87C90DFF8AA
:100E60007CA0DFF87CB000F090FCB36821464046DF
:100E7000984735680DB9BDE8F88F6F68384604F0BB
:100E800004FC32288CBF514649463B462A6820461E
:100E900000F07BFC5946204600F0A2FD0B490746B6
:100EA000204600F09DFD07B918B10949204600F021
:100EB000D6FC0849204600F0D2FCB36821464046E3
:100EC0009847ED68D6E700BF37A400007EA4000075
:100ED00008A600007DA4000093A4000080A40000E8
:100EE0009FA4000030B504294FF0000538BF04214D
:100EF0000560C0E90112C36030BD11B10368CB6069
:100F0000016070472DE9F041144605460F46104632
:100F1000424900F0A9FD4249204600F0E6FC0028C5
:100F200033D03F49204600F0C2FC28B12246394662
:100F30002846FFF78BFF68E02021204600F05EFD89
:100F4000DFF8F0802E680EB92E6810E04246316856
:100F5000204600F0E1FC002838D1F668F3E76A6823
:100F60003168204600F0ADFC00282FD1F668002E35
:100F7000F5D131462B4A204600F047FCAB682146AC
:100F800038469847AB6825493DE02E68DFF8A480D5
:100F90000EB92E680EE042463168204600F0BCFCD7
:100FA000B8B9F668F4E76A683168204600F089FC51
:100FB00078B9F668002EF6D131461B4A204600F07B
:100FC00024FCAB68214638469847AFE7AB687168A8
:100FD000D6E72021204600F011FDB368AA6821461B
:100FE0003846984788B1114A0021204600F00DFC90
:100FF000AB682146384698470D497268204600F094
:10100000C4FBAB68214638469847E96821B1AB6814
:101010003846BDE8F0411847BDE8F0817DA40000E6
:10102000A1A40000D4A40000FDA40000A6A4000018
:10103000B7A4000094B2000010B54C1E14F8010FC4
:1010400000B910BD04F076F9F8E7FFFF70B5A0B065
:1010500006461B4A8021684600F0CCFB0446304619
:1010600022460021FFF74EFF204600F07DFB204680
:1010700000F074FC0028F2D103F0D0F8C5B2082DBE
:1010800016D1204600F05DFB60B10121204600F042
:1010900096FC284604F04EF9202004F04BF928462F
:1010A00004F048F9204600F052FB0028DFD0D6E7D4
:1010B000284604F03FF92946204600F0ECFBF1E712
:1010C000A1A4000030B589B004AD2846124B134AE4
:1010D000134C0421FFF706FF95E80F0084E80F008A
:1010E00020461049FFF709FF20460F49FFF705FF8B
:1010F00020460E49FFF701FF0D4B02930D4B019364
:10110000032300934FF4007223460B490B4801F070
:1011100083FC09B030BD00BF2EA5000039100000CF
:10112000600300102C0000101C0000100C000010C8
:10113000700B00107003001081A500004D1000001E
:101140002DE9F043E7B00DF198084FF48072814625
:101150000E464046002103F0AFF8802106A800F0BB
:10116000CDFA05AF01233B6005460024009704AB90
:1011700003AA20494846CDE9034400F013FB0128A7
:1011800031D93B6800939DF810209DF80C10434620
:10119000022002F04FFB8146E8B1039A1649DFF8BE
:1011A0006490284600F0F1FA29462046B0473B6893
:1011B000A34202D867B0BDE8F083049A18F804305F
:1011C000009322444946284600F0DFFA29460020D1
:1011D000B0470134EBE70949284600F0F4FA294604
:1011E0004846B047E6E70649284600F0ECFA2946AB
:1011F0002046F6E798A60000A5A60000D6A60000A7
:1012000003A70000BFA600002DE9F043E7B00024CB
:101210000DF198084FF4807281460F4640462146F2
:10122000CDE9034403F048F8802106A800F066FAEF
:1012300004AB064603AA2949484600F0B3FA02283F
:1012400044D12021484600F0D9FB2021484600F037
:10125000D5FB059405A9484600F0DEFB0546D0B94C
:10126000009443469DF810209DF80C10022002F0D7
:101270001BFB814610B3039B1949DFF8709022468F
:10128000304600F082FA31462846B847AC4207D1D2
:1012900067B0BDE8F083059B08F804300134D9E756
:1012A000049A18F8053000932A444946304600F065
:1012B0006CFA31460020B8470135E7E70949304666
:1012C00000F081FA31464846B847E1E70649304622
:1012D00000F079FA31462046F6E700BF43A7000048
:1012E0004DA7000084A70000B2A700006DA7000072
:1012F000F8B50D4628460E49164600F0F6FA0D4997
:101300000446284600F0F1FA20210746284600F05E
:1013100075FB2CB131462846FFF712FF0020F8BDBF
:1013200027B131462846FFF76FFFF7E70120F6E7C0
:101330008DA6000092A600000123024A1A60002038
:10134000704700BFEFBEADDE08B5024990470020F0
:1013500008BD00BF04A80000F8B504460D4600F023
:1013600005F9061941EB050701F02AFE02280CD108
:1013700000234FF47A72AB4208BFA24205D2204646
:10138000294602F045FD01F0F5FC00F0EFF8B94206
:1013900008BFB042F9D3F8BD4FF47A73A0FB030144
:1013A000FFF7DABF30B585B001F03AFF01F0D4FFA6
:1013B0008DF80C0001F0D6FF8DF80D0001F0D8FF7C
:1013C0008DF80E0001F0DAFF00248DF80F0004AA5A
:1013D00004F003031344013413F8040C02F09AF8E8
:1013E0003220FFF7D9FF202CF1D1284B18680023B9
:1013F00019460222406804F037F8FEF713FF002573
:1014000001464FF4E132002002F0DCFB0095204B56
:10141000204A0121204600F01FFE1F4B0095044684
:101420001E4A0121802000F017FE22460146284670
:1014300002F012FC45F6C05002F030FB01221849C0
:101440001848FFF703FA184A184B1949A84208BF71
:101450001346184A1848194D03F054FFFEF7E2FEF0
:1014600017490246022002F08DF90224E1B202205F
:1014700002F042FA18B12146284603F043FF023435
:10148000B4F5807FF2D105B030BD00BF80010010FF
:10149000E40B0010C40B0010E40E0010640E0010EA
:1014A0007FA400002C0C00105EA800007CA80000A7
:1014B000A3A800004DA80000F4A8000014A9000093
:1014C000801A060010B50A4C236823B90949012087
:1014D00000F0DAFE206001F073FD022806D12068DA
:1014E0004FF0FF31BDE8104001F044B810BD00BF1F
:1014F0002C0F0010300F001010B501F061FD022814
:1015000008D1054800231A4619460068BDE8104076
:1015100000F00CBE10BD00BF2C0F0010074A08B52C
:101520001368002101330846136002F04DF80021D2
:101530000846BDE8084002F033B800BF780F00103D
:1015400008B5074A0749B0FBF1F10020013901F065
:10155000F1FF0021044A0846BDE8084002F00EB839
:101560001D15000040420F000087930370B5084E20
:10157000002002F021F805460020346802F01CF833
:101580008542F5D8034B0021E3FB040170BD00BF89
:10159000780F00100087930308B5FFF7E7FF4FF4BB
:1015A0007A72002302F034FC08BD70B50546084687
:1015B0000C4604F06AF82618B44205D128460A21E0
:1015C000BDE8704002F084BB14F8011B284602F00D
:1015D0007FFBF1E710B50478204601F09BFF4FF444
:1015E000FA7001F0C7FBF7E72DE9F34101F0B4FE13
:1015F000DFF85C80114E88F8000001F0B3FE104D5A
:101600003070002401274346CDE9007464220D495F
:10161000284601F037FA334664220B49CDE90074BD
:10162000284601F02FFAFFF74DFD084803F004FFAC
:1016300001F056FA204602B0BDE8F0817D0F00109F
:10164000D51500003BA9000040A9000045A90000F5
:101650007C0F00100C460020044908B5FFF7A5FFD9
:1016600021460020FFF7A1FFFEE700BF85AA00008A
:1016700008B502490020FFF798FFFEE74BAA0000DB
:10168000024B0022C3F8C02030BF704700C00F409B
:1016900008B50C4600200A49FFF787FF09490020DA
:1016A000FFF783FF08490020FFF77FFF074900206D
:1016B000FFF77BFF21460020FFF777FFFEE700BF23
:1016C00053A90000A5A90000E8A900001CAA000079
:1016D000034B0360034B0B6064231360704700BF30
:1016E00018110010880F001008B5FFF73FFF024BDC
:1016F0001B68C01A08BD00BF800F001038B50D462A
:10170000044658B103290BD90A46002102F0D4FD42
:1017100023462A0A03F8022B65701C46204638BD72
:101720000024FBE710F8023C10F8010C40EA03200B
:10173000033880B2704708B5FFF7F4FF013080B27C
:1017400008BD08B510B103F0A0FF80B208BD10B508
:101750000446FFF7F6FF02462046FFF7E3FF82420A
:1017600034BF0020012010BD00230370704710B566
:101770000446FFF7E0FF13460A460146204604F000
:1017800089FE20EAE07080B210BD0EB403B503AA52
:1017900052F8041B0192FFF7EAFF02B05DF804EB78
:1017A00003B070470EB403B503AA52F8041B0192AC
:1017B00004F0A2FE0028CCBF80B2002002B05DF889
:1017C00004EB03B0704738B505460C46084671B1C6
:1017D00003F05BFF01462846FFF7A4FF89B2814270
:1017E000024605D82146284603F08CFF012038BD6B
:1017F0000020FCE738B51546FFF780FF044610B11E
:101800002946FFF7E0FF204638BD2DE9F0410546A7
:101810000F4614460AB3FFF794FFB84206461CD39E
:10182000204603F032FF32188046284692B2FFF776
:1018300079FF824211D8C7F101023D44324492B28D
:10184000294605EB080002F01DFD424621462846C8
:1018500003F058FF0120BDE8F0810020FBE770B5E0
:1018600006460C46A9B1FFF76CFF0546204603F07B
:101870000CFF82B2A918304689B2FFF753FF8842A5
:1018800007D3013292B22146701902F0EDFC01201B
:1018900070BD0020FCE707B500238DF8041001A9F6
:1018A0008DF80530FFF7DBFF03B05DF804FB08B5EA
:1018B00029B103F0C1FEB0FA80F0400908BD084626
:1018C000FCE770B5064615460C4661B1FFF739FFD7
:1018D000A84208D32A462146304603F001FFB0FA59
:1018E00080F0400970BD0020FCE770B505460C464D
:1018F00081B1FFF726FF0646204603F0C6FE86426A
:10190000024607D32146284603F0C8FEB0FA80F00D
:10191000400970BD0020FCE72DE9F0410746144660
:101920000D46C9B1C2B1FFF70CFF8046284603F04F
:10193000ACFE804506460FD302462946384603F0E2
:10194000CFFE48B9B85D237883421ABFB0FA80F061
:1019500040090120BDE8F0810020FBE710B50446F6
:10196000FFF7EFFE40B1013880B2205C0D2804D0B3
:10197000A0F10A035842584110BD0120FCE770B5A0
:101980000C4605461646FFF7DCFEA04211D9011BA6
:10199000B142C4F101030A461844A8BF3246801A76
:1019A00014FA82F1294482B2281902F06BFC01205A
:1019B00070BD0020FCE70A460021FFF7E0BF38B504
:1019C0000C460546FFF7BDFEA04224BF001B81B2B6
:1019D0002246284638BF0021BDE83840FFF7CFBF78
:1019E00010B5044603F0A1FE031E1FBF1B1B9BB2D4
:1019F000002201200CBF0020E25410BD10B50446A7
:101A000003F036FE38B1011B0131204689B2BDE832
:101A10001040FFF7D0BF10BD70B50646054611480F
:101A20000C462B4613F8011BC9B10A5C520714D5AA
:101A300024B1284602F06EFB20600124094A2946A1
:101A400015F8013B13B19B5C5B07F8D4891B89B285
:101A50003046FFF7B0FF204670BD1D46E1E70C465B
:101A6000ECE700BF89B10000F8B506460C46C9B1E5
:101A7000FFF767FE0546204603F007FE6B1E334462
:101A80002044013E0021B34202D02246824201D1CD
:101A9000012008E012F8015B1F78AF42F6D103F88D
:101AA0000119F0E70846F8BD00F05AB800F0A0B8F8
:101AB00000F0D0B808480068006880F308884FF04C
:101AC000000080F3148862B661B6BFF34F8FBFF396
:101AD0006F8F00DF00BF000008ED00E0DFF80C00B2
:101AE000016841F4700101607047000088ED00E07A
:101AF00007B5002301930B4B1B68013304D00A493F
:101B0000EF20FFF7C5FDFEE74FF0180383F31188C0
:101B1000BFF36F8FBFF34F8F019B002BFCD003B03F
:101B20005DF804FB74110010A2AA00004FF080734E
:101B300040F8043C074B40F80C3C21F001016FF0E9
:101B4000020340F8081C40F8202C40F8243C44389C
:101B5000704700BFF11A0000FFFFFFFFFFFFFFFF0C
:101B6000074B19680868B0E8F04F80F30988BFF3A5
:101B70006F8F4FF0000080F311887047AFF3008043
:101B80007811001008B54FF0180383F31188BFF3E4
:101B90006F8FBFF34F8F094A13680133012B136016
:101BA0000AD1074B1B6813F0FF0F05D0054940F21F
:101BB000AB10FFF76DFDFEE708BD00BF741100100C
:101BC00004ED00E0BCAA0000074A08B513682BB971
:101BD00006494FF4D970FFF75BFDFEE7013B136048
:101BE0000BB983F3118808BD74110010F1AA00002D
:101BF000EFF30980BFF36F8F154B1A681EF0100FBB
:101C000008BF20ED108A20E9F04F10602DE909008F
:101C10004FF0180080F31188BFF34F8FBFF36F8F21
:101C200001F0CCF84FF0000080F3118809BC19686E
:101C30000868B0E8F04F1EF0100F08BFB0EC108A33
:101C400080F30988BFF36F8F704700BFAFF3008048
:101C50007811001008B54FF0180383F31188BFF313
:101C60006F8FBFF34F8F00F07DFF18B1034B4FF024
:101C700080521A60002383F3118808BD04ED00E050
:101C800010B5084A084C002323601360FEF7C6FA1B
:101C90004FF47A73B0FBF3F0044B0138186007235C
:101CA000236010BD18E000E010E000E014E000E068
:101CB000334B344A13B51968914205D132494FF478
:101CC0009A70FFF7E5FCFEE71A68304B9A4205D19F
:101CD0002F4940F23510FFF7DBFCFEE72D4B1A7859
:101CE000D2B20192FF221A701B782B4ADBB28DF818
:101CF00003309DF8033003F018031370274A0723BD
:101D0000136000219DF80300000603F1FF3409D49D
:101D100011B1022B13600ED0214940F25D10FFF784
:101D2000B7FCFEE79DF803305B00DBB28DF80330B3
:101D300001212346E6E74FF400731360019B154A27
:101D4000DBB21370174B1A6842F478021A601A68F3
:101D500042F078421A60FFF793FF134B00241C6097
:101D6000FFF7BCFE114A136843F040431360FFF7CE
:101D7000A1FE01F023F8FFF7BBFE204602B010BD24
:101D800000ED00E071C20F416FAB000070C20F4167
:101D900092AB000000E400E06C1100107011001024
:101DA000B5AB000020ED00E07411001034EF00E04E
:101DB00008B5EFF305830F2B0BD90D4A9B5C0D4A39
:101DC00012789A4205D90C4940F2FE20FFF760FCD8
:101DD000FEE70A4B0A4A1B68126803F4E063934269
:101DE00005D9084940F20E30FFF752FCFEE708BD66
:101DF000F0E300E06C11001003AB00000CED00E01C
:101E0000701100102DAB000010B5044600F0A2FECA
:101E1000204602F019FA044600F036FF0CB9FFF72D
:101E200027FC204610BD10B5044640B100F092FEDC
:101E3000204602F011FABDE8104000F025BF10BDA9
:101E400000F108034FF0FF324360C0E90223036151
:101E500000230360704700230361704743684B60B1
:101E60009A688A609A6851609960036808610133D2
:101E7000036070470A68531C30B50AD103695A6879
:101E80004A6091608B6059600368086101330360A8
:101E900030BD00F108035C6825689542EFD8234601
:101EA000F9E7D0E9011203698A60516059688142FB
:101EB00008BF5A60002202611A68013A1A60186865
:101EC000704710B50446FFF75DFEA46BFFF77CFE7C
:101ED000B4FA84F0400910BDF8B51546026C866B63
:101EE000044652B9076847BB806801F0CBF8A76089
:101EF00005460136A6632846F8BD65B9406802F07C
:101F0000B3F96368226C1344A26863609342F0D310
:101F100023686360EDE7C06802F0A6F9236CE2680D
:101F200021685B421A448A42E2603EBFA2689B1865
:101F3000E360022D01D116B1013E0025D9E73546F7
:101F4000D7E7034610B41A6C084662B1D9689C689A
:101F50001144A142D96024BF1968D960D9685DF8DD
:101F6000044B02F081B95DF8044B704770B504462C
:101F7000FFF708FE94F8455004F124066DB2002DD9
:101F800014DCFF2384F84530FFF71EFEFFF7FAFD4F
:101F900094F8445004F110066DB2002D12DCFF23BA
:101FA00084F84430BDE87040FFF70EBE636A002B32
:101FB000E7D0304600F078FF08B100F0FBFF013DAC
:101FC0006DB2DCE72369002BE9D0304600F06CFFEE
:101FD00008B100F0EFFF013D6DB2DEE738B50D4608
:101FE000044628B91A4940F20310FFF751FBFEE7F7
:101FF000FFF7C8FDD4E90F30226862604343D1186F
:102000001B1A1344A160E3600021FF23A16384F83D
:10201000443084F8453095B9236963B104F1100068
:1020200000F042FF38B10B4B4FF080521A60BFF303
:102030004F8FBFF36F8FFFF7C7FD012038BD04F14D
:102040001000FFF7FDFE04F12400FFF7F9FEF2E7B0
:10205000BBAC000004ED00E013B51C4628B91C49D8
:102060004FF49D70FFF714FBFEE72BB919494FF4AD
:102070009F70FFF70DFBFEE732B161B916494FF4CF
:10208000A170FFF705FBFEE729B1144940F24310A8
:10209000FFF7FEFAFEE748230193019B482B05D08A
:1020A0000F4940F24B10FFF7F3FAFEE7002908BF93
:1020B0002246019B22600123C4E90F0184F84630C7
:1020C00019462046FFF78AFF204602B010BD00BF28
:1020D000F8AB00001AAC000030AC000068AC0000A7
:1020E000A0AC000070B50D46064628B90E494FF465
:1020F000BB70FFF7CDFAFEE748434830FFF784FE98
:10210000044660B1002380F8463055B100F1480321
:102110002360C4E90F6501212046FFF75FFF2046D9
:1021200070BD0346F4E700BFF8AB00002DE9FF47A0
:10213000884601921F46044628B94E4940F2F120D4
:10214000FFF7A6FAFEE739B9036C2BB14A4940F212
:10215000F220FFF79DFAFEE7022F08D1E36B012B77
:1021600005D0464940F2F320FFF792FAFEE700F06F
:1021700027FF064638B9019B33B1414940F2F620AA
:10218000FFF786FAFEE700264FF00009DFF8F4A01B
:1021900037E0019D1DB9FFF717FD002050E016B98B
:1021A00002A800F0C1FEFFF70FFD00F0D3FCFFF71F
:1021B000E9FC94F84430FF2B08BF84F8449094F86D
:1021C0004530FF2B08BF84F84590FFF7FDFC01A9BF
:1021D00002A800F0B5FE002846D1FFF7D3FCA26BA1
:1021E000E36B9A422FD1FFF7EFFC019904F1100045
:1021F00000F042FE2046FFF7B9FE00F045FD50B367
:102200000126FFF7BFFCA26BE36B9A4201D3022FBA
:10221000BFD13A4641462046FFF75EFE636A1BB1D6
:1022200004F1240000F040FE38B1164B4FF080520C
:102230001A60BFF34F8FBFF36F8FFFF7C5FC01200C
:1022400004B0BDE8F087FFF7BFFC2046FFF78EFE25
:1022500000F01AFDD4E74FF08053CAF80030BFF306
:102260004F8FBFF36F8FCBE72046FFF77FFE00F065
:102270000BFD92E7BBAC0000C3AC000013AD000047
:102280005AAD000004ED00E013B5002200900B46AB
:1022900001201146FFF7E0FE044638B100238360B9
:1022A0000360C3601A461946FFF740FF204602B09C
:1022B00010BD10B5024600210120FFF713FF0446B0
:1022C00038B1002383600360C3601A461946FFF7E4
:1022D0002DFF204610BDFFFF2DE9F84389469046AB
:1022E0001F46044628B9284940F2C330FFF7D0F909
:1022F000FEE739B9036C2BB124494FF47170FFF735
:10230000C7F9FEE7022F08D1E36B012B05D0204966
:1023100040F2C530FFF7BCF9FEE7FFF749FDEFF3E8
:1023200011864FF0180383F31188BFF36F8FBFF34B
:102330004F8FA26BE36B9A4201D3022F22D194F804
:1023400045503A466DB249462046FFF7C5FD6B1C25
:1023500013D1636A0BB901200BE004F1240000F0F3
:10236000A3FD0028F7D0B8F1000FF4D00120C8F881
:10237000000086F31188BDE8F88301356DB284F85A
:102380004550E8E70020F4E7BBAC0000C3AC000018
:1023900013AD000070B50D46044628B923494FF42B
:1023A0008C60FFF775F9FEE7036C2BB1204940F212
:1023B0006440FFF76DF9FEE703683BB983682BB112
:1023C0001C4940F26940FFF763F9FEE7FFF7F0FCB4
:1023D000EFF311864FF0180383F31188BFF36F8F6B
:1023E000BFF34F8FA26BE36B93421CD994F8453037
:1023F00001325BB2A2635A1C10D1636A0BB901208F
:1024000009E004F1240000F04FFD0028F7D0002D72
:10241000F5D00120286086F3118870BD01335BB2CE
:1024200084F84530EBE70020F5E700BFBBAC0000C7
:10243000B0AD0000C9AD00002DE9F04385B00F46F6
:102440000192044628B947494FF4A060FFF720F9EC
:10245000FEE739B9036C2BB1434940F20450FFF752
:1024600017F9FEE700F0ACFD064638B9019B33B121
:102470003E4940F20950FFF70BF9FEE700264FF006
:102480000008DFF8EC903BE0019D1DB9FFF79CFBD5
:10249000002052E016B902A800F046FDFFF794FBB9
:1024A00000F058FBFFF76EFB94F84430FF2B08BF99
:1024B00084F8448094F84530FF2B08BF84F84580A9
:1024C000FFF782FB01A902A800F03AFD00283DD1E8
:1024D0002046FFF7F6FC98B3019904F1240000F0C0
:1024E000CBFC2046FFF742FD00F0CEFB38B94FF0A1
:1024F0008053C9F80030BFF34F8FBFF36F8F0126B1
:10250000FFF740FBA56B002DBED039462046013DAC
:10251000FFF717FDA563236963B104F1100000F014
:10252000C3FC38B1124B4FF080521A60BFF34F8F8B
:10253000BFF36F8FFFF748FB012005B0BDE8F083C4
:102540002046FFF713FD00F09FFBD8E72046FFF77A
:102550000DFD00F099FB2046FFF7B3FC0028CED01C
:1025600096E700BF30AE00003CAE00005AAD000060
:1025700004ED00E02DE9FF410446019128B95849D6
:1025800040F29150FFF784F8FEE7056C2DB15549F4
:1025900040F29550FFF77CF8FEE700F011FD06468B
:1025A00038B9019B53B1504940F29A50FFF770F887
:1025B000FEE72E460027DFF838814EE00546F9E7B2
:1025C000019B4BB92DB1494940F2E150FFF760F84A
:1025D000FEE7FFF7F9FA5EE016B902A800F0A4FCE6
:1025E000FFF7F2FA00F0B6FAFFF7CCFA94F84430AD
:1025F000FF2B08BF84F8447094F84530FF2B08BFC8
:1026000084F84570FFF7E0FA01A902A800F098FCF1
:1026100000284AD12046FFF754FC00283FD0236809
:102620003BB9FFF7AFFAA06800F0DAFC0546FFF708
:10263000CBFA019904F1240000F01EFC2046FFF7BC
:1026400095FC00F021FB38B94FF08053C8F80030FA
:10265000BFF34F8FBFF36F8F0126FFF793FAA36B82
:10266000002BADD0013BA363236813B900F0B0FD8C
:10267000A060236963B104F1100000F015FC38B1CB
:102680001B4B4FF080521A60BFF34F8FBFF36F8F19
:10269000FFF79AFA0125284604B0BDE8F0812046EC
:1026A000FFF764FC00F0F0FAD6E72046FFF75EFC87
:1026B00000F0EAFA2046FFF704FC0028CCD0002DF9
:1026C000E9D0FFF75FFA616A19B1236B1968C1F1AC
:1026D0000A01A06800F024FD0025FFF775FADAE78B
:1026E00030AE0000B0AD00005AAD0000DAAE000020
:1026F00004ED00E02DE9F84389469046054628B9E7
:10270000214940F2FB60FEF7C3FFFEE739B9036CD5
:102710002BB11E4940F2FC60FEF7BAFFFEE7FFF75F
:1027200047FBEFF311874FF0180383F31188BFF3D2
:102730006F8FBFF34F8FAC6B1CB395F84460494665
:1027400076B22846FFF7FDFB013C731CAC6313D146
:102750002B690BB901200BE005F1100000F0A4FB80
:102760000028F7D0B8F1000FF4D00120C8F800001D
:1027700087F31188BDE8F883013676B285F84460A6
:10278000E8E72046F4E700BFBBAC00008FAE0000D6
:1027900008B528B9064940F2B770FEF779FFFEE7A1
:1027A00090F846301BB9BDE80840FFF73CBB08BDB8
:1027B000BBAC00002DE9F0410546FFF7E3F92D4BD6
:1027C0002D4C1A682D4F01321A602668002E45D113
:1027D00025601B68012B1CD1B84640460136FFF727
:1027E0002FFB0A2E08F11408F7D1DFF8B880244E29
:1027F0004046FFF725FB3046FFF722FB2148FFF755
:102800001FFB2148FFF71CFB204BC3F80080204B27
:102810001E60204A20491368086801331360EA6A81
:1028200001239340034314200B6000FB0270291D19
:10283000FFF714FBFFF7C8F9184B1B6863B1236857
:10284000DA6AEB6A9A4207D2154B4FF080521A604F
:10285000BFF34F8FBFF36F8FBDE8F0810F4B1B6845
:10286000002BD6D12368DA6AEB6A9A4298BF2560BA
:10287000CFE700BF50120010781100108411001033
:102880007812001098120010B01200107C11001085
:10289000801100105C12001060120010AC120010C9
:1028A00004ED00E06412001008B5074C074D4FF02E
:1028B00080562368012B04D92E60BFF34F8FBFF3DE
:1028C0006F8FFEF7DDFEF4E78411001004ED00E0E9
:1028D000064A13681968064B19B94FF0FF321A609F
:1028E00070471268D268D2685268F8E77C1100100D
:1028F000901200102DE9F047DDE909644FEA8209E2
:102900004A4607460D46206BA521984601F0D4FCA7
:10291000236BA9F10409994429F007099DB36B1EA3
:1029200004F134020B3513F8011F02F8011B09B141
:10293000AB42F8D1002384F83F30089D092D28BF11
:1029400009254FF0000AE5622564201DC4F844A063
:10295000FFF781FAC5F10A0504F11800FFF77BFAC9
:10296000C4F84CA02461A5616462C4F848A084F84E
:1029700050A0424639464846FFF7D8F8206006B1D5
:102980003460BDE8F08784F83450D6E7F8B51B4BC7
:102990001B4E1C680546306804300F46FFF781FA6D
:1029A000334640B93168174EC96A32680120884001
:1029B00022EA000232606A1C07D137B11968124856
:1029C0000431BDE8F840FFF749BA1A686419546049
:1029D00007D30E4A10681968BDE8F8400431FFF7C4
:1029E00049BA0B4A106819680431FFF743FA094BDA
:1029F0001A68A24288BF1C60F8BD00BFC412001054
:102A00007811001060120010B01200108011001038
:102A10007C1100109012001070B586B0DDE90B54E7
:102A20002DB9154940F24D20FEF732FEFEE72CB9D4
:102A3000124940F24E20FEF72BFEFEE75426059683
:102A4000059E542E05D00E4940F25620FEF720FE7A
:102A5000FEE72563022584F8515004AD01950A9DD7
:102A600002940095059EFFF745FF2046FFF7A2FE62
:102A7000049806B070BD00BFC5AF0000DCAF000019
:102A8000F1AF00002DE9F043074685B0900088467D
:102A900016469946FFF7B8F90546E8B15420FFF706
:102AA000B3F90446A8B1002380F851300D9B0563AB
:102AB00001930C9B0290009332464B4641463846A8
:102AC000FFF718FF2046FFF775FE012005B0BDE8AF
:102AD000F0832846FFF7A7F94FF0FF30F6E7FFFF36
:102AE00010B588B0002407AA06A905A8CDE90544B9
:102AF000FEF7EEFD059B0293069B079A0F491048CF
:102B0000CDE900432346FFF787FF0E4B186090B1D5
:102B10004FF0180383F31188BFF36F8FBFF34F8F0C
:102B2000094B4FF0FF321A60084B01221A60084B24
:102B30001C60FFF7BDF808B010BD00BF6BAF000010
:102B4000A92800008C12001090120010AC12001086
:102B5000C4120010024A136801331360704700BFAB
:102B6000581200102DE9F84F3B4B1B68002B6BD11E
:102B70003A4B1C6801341C60A4B9394B1A681268BE
:102B80002AB1384940F67F20FEF782FDFEE7364A3B
:102B90001968106818601160344A136801331360B3
:102BA000FFF796FE324D334F2B68A3424FF0000BD8
:102BB00011D93A68304BD16A14224A439A58022AF2
:102BC00028BF4FF0010B2D4A1268002A0CBF58464F
:102BD0000120BDE8F88FDFF888A0DFF8A890DAF8C8
:102BE000002012681AB94FF0FF322A60E1E7DAF8E4
:102BF0000020D268D66871688C4201D22960D8E77B
:102C000006F104084046FFF74CF9B16A19B106F124
:102C10001800FFF746F9F06AD9F80030012202FAED
:102C200000F11943144BC9F800104FF0140C414641
:102C30000CFB0030FFF712F93868F16AC26A914262
:102C400028BF4FF0010BCAE70D4A13680133136028
:102C50004FF0000BB7E700BF58120010C41200106D
:102C60007C1100100AB000008011001094120010B6
:102C7000901200107811001084110010C81200107A
:102C800054120010601200102DE9F8432F4C2368F5
:102C90002BB92F4940F68500FEF7FAFCFEE7FEF758
:102CA00071FF2368013B236024682CB10024FEF7E8
:102CB0008BFF2046BDE8F883264B1B68002BF5D020
:102CC000254D264EDFF8A8801FE0EB68DC6804F194
:102CD000040904F11800FFF7E4F84846FFF7E1F8AB
:102CE000E26A3168012707FA02F314200B4300FB64
:102CF000028049463360FFF7B1F8194BE26A1B685E
:102D0000DB6A9A4201D3174B1F602B68002BDCD182
:102D10000CB1FFF7DDFD144D2C6844B1114E0127B5
:102D2000FFF720FF00B13760013CF9D12C600D4B5B
:102D30001B68002BBAD00D4B4FF080521A60BFF3C6
:102D40004F8FBFF36F8F0124B1E700BF58120010FF
:102D50006FB00000501200109812001060120010A6
:102D600078110010C81200105412001004ED00E099
:102D70008411001008B540B90D4B4FF080521A6015
:102D8000BFF34F8FBFF36F8F08BD0A4B196829B18E
:102D9000094940F23C50FEF77BFCFEE7FFF7DAFE04
:102DA000FFF7F4FDFFF770FF0028E5D0ECE700BF68
:102DB00004ED00E05812001025AF000038B5274B95
:102DC0001A68274B12B101221A6038BD1A60FEF74B
:102DD0008BFC244A244C1568A84204D921688B6CCA
:102DE0005B1B03448B64236810601B6B1A68B2F191
:102DF000A53F0BD15A68B2F1A53F07D19A68B2F14D
:102E0000A53F03D1DB68B3F1A53F04D0206821685A
:102E10003431FEF71FFC154B1B68B3FA83F3DBB2AA
:102E2000C3F11F03142212495A4388188D582DB933
:102E3000104940F6B730FEF72BFCFEE74568083234
:102E40006D6845600A44954204BF6A684260142276
:102E500002FB03135B68DB682360B6E758120010BF
:102E6000C81200104C1200107811001060120010EF
:102E70008411001070AF000010B50C4628B9084945
:102E800040F6CE30FEF704FCFEE7064B1968183119
:102E9000FEF7F0FF20460121BDE81040FFF776BDA8
:102EA0003FAF00007811001038B5C368DC682CB95A
:102EB000164940F62940FEF7EBFBFEE704F1180542
:102EC0002846FEF7EEFF124B1B68E3B9251D284686
:102ED000FEF7E7FF0F49E26A0868012393400343C6
:102EE0000B600D4B1420294600FB0230FEF7B6FFA5
:102EF0000A4BE26A1B68DB6A9A4283BF084B0120D7
:102F00001860002038BD29460648EFE760B0000091
:102F10005812001060120010841100107811001077
:102F2000C812001098120010034B1B680360034B7B
:102F30001B684360704700BF94120010C412001059
:102F400070B50C46054628B9164940F69440FEF780
:102F50009FFBFEE729B9144940F69540FEF798FB20
:102F6000FEE7FEF70FFE114B196823685A1C10D0BC
:102F70000F482E6800686A68864201D08A420FD9DD
:102F8000881A83420AD95B1A134423602846FFF744
:102F9000CBFF0024FEF718FE204670BD00232360FF
:102FA0000124F7E761AF0000B7AF0000C4120010C2
:102FB00094120010014B01221A607047C8120010D1
:102FC000054B1B6833B1054B1B68002B0CBF02205F
:102FD0000020704701207047AC12001058120010FA
:102FE0002DE9F0410446002835D0234AC36A116810
:102FF000C96A8B42174636D28269204D002AA1BF8A
:103000003A68D26AC2F10A0282611426426906FB5A
:1030100003539A4221D100F104084046FEF741FFD4
:10302000174B48B9E06A4643AA592AB91A680121E0
:10303000814022EA01021A603A681968D26AE262A3
:10304000012404FA02F0084318601420414600FBF2
:103050000250FEF703FF204603E03B68DB6AC362D1
:103060000120BDE8F0811368006CDC6AA0422CBF2F
:1030700000200120F5E700BF781100108411001036
:1030800060120010F8B5044608B90020F8BD1F4BC7
:103090001B68834205D01E4940F6D170FEF7F8FA4E
:1030A000FEE75B6C2BB91B4940F6D270FEF7F0FAD5
:1030B000FEE7C16A026C013B91424364E5D0002BFC
:1030C000E3D1051D2846FEF7ECFE134E134A50B916
:1030D000E76A1421794373582BB913680120B8406B
:1030E00023EA00031360236CE362C3F10A01A161C8
:1030F0001168012404FA03F008431060142000FB57
:1031000003602946FEF7AAFE2046BFE778110010AB
:1031100035B000004BB000008411001060120010A8
:10312000F8B50446002847D0426C2AB923494FF429
:103130008150FEF7ADFAFEE7036C994238BF19469D
:10314000C36A8B4238D0012A36D11D4A12688242A6
:1031500005D11C4941F23B00FEF79AFAFEE782696D
:10316000194DC162002A4FF014064269A8BFC1F18F
:103170000A0106FB0353A8BF81619A421CD1071DB7
:103180003846FEF78EFEE26A104C40B95643AB5902
:103190002BB923680121914023EA010323602168B0
:1031A000012393400B4314202360394600FB025057
:1031B000BDE8F840FEF752BEF8BD00BF4BB00000BE
:1031C000781100104BAF0000841100106012001045
:1031D000044B1A681AB119684A6C01324A641868BB
:1031E000704700BF7811001010B5FEF77DFA064B4E
:1031F000064A196829B1196814688B6C1B1B0344B3
:103200008B64106010BD00BF781100104C120010CC
:1032100008B5FEF769FA014B186008BD4C120010A2
:1032200038B501220221002000F0C3F80122032159
:10323000002000F0BEF804220021012000F0B9F8BF
:1032400001210422084600F0B4F8042211460120AE
:1032500000F0AFF80821012000F01AF9284B4FF4D4
:1032600080729A610921012000F0EEF802220A2101
:10327000002000F09EF802220B210546002000F0FD
:1032800098F80446284600F0A9F8204600F0A6F871
:103290000321022000F0FCF81A4B1B4D18701A2174
:1032A000012000F0F5F8194B194C18701821012075
:1032B00000F0EEF8174B12211870012000F0E8F82A
:1032C000154B13211870012000F0BEF80F21287053
:1032D000012000F0B9F81E212070002000F0B4F8A1
:1032E0000E4B1D211870002000F0AEF80C4B18702A
:1032F000287800F083F82078BDE8384000F07EB8E8
:1033000020800920CC120010D0120010CD12001025
:10331000D1120010CE120010CF120010D2120010E5
:10332000D3120010024B4FF48072DA61704700BF75
:1033300020800920024B4FF480729A61704700BFD1
:1033400020800920034B586980F40070C0F34020AE
:10335000704700BF20800920014B1878704700BFDC
:10336000CC120010014B1878704700BFCD1200102E
:10337000014B1878704700BFCE120010014B18782F
:10338000704700BFCF120010C0F3C40300F0070263
:103390009B0003EBC21303F1804303F5303301F0CC
:1033A00007011A6822F007021A601A6811431960AF
:1033B000704738B500F007054FF0000001F01F041A
:1033C00065F3020064F3C7001146FFF7DDFF4FF01D
:1033D000000065F3020064F3C70038BDC0F3C40306
:1033E00000F007029B0003EBC21303F1804303F5D7
:1033F00030331A6842F480621A607047C0F3C40325
:1034000000F007029B0003EBC21303F1804303F5B6
:1034100030331A6822F018021A601A6842F0080263
:103420001A60704700F00702064B53F82210C0F3F1
:10343000C4000B68012202FA00F023EA00030B60CB
:10344000704700BF84B0000038B500F007054FF0AA
:10345000000001F01F0465F3020064F3C700FFF7EA
:10346000E1FF4FF0000065F3020064F3C70038BDD0
:1034700000F00702054B53F82220C0F3C403116883
:103480000120984008431060704700BF84B00000DE
:1034900038B500F007054FF0000001F01F0465F398
:1034A000020064F3C700FFF7E3FF4FF0000065F38D
:1034B000020064F3C70038BD00F00702064B53F862
:1034C0002230C0F3C4005A69012303FA00F010420D
:1034D00014BF18460020704784B0000000F00702B7
:1034E000044BC0F3C40053F82220012303FA00F078
:1034F0009061704784B0000000F00702044BC0F3F5
:10350000C40053F82220012303FA00F0D061704771
:1035100084B0000008B50146FFF7CEFF20B1084691
:10352000BDE80840FFF7E8BF0846BDE80840FFF7E0
:10353000D5BFFFFF2DE9F8430F4F0C2444433E193C
:10354000884635792846914600F00AFA3C5900230E
:103550003F2263604946A360284622606361B268E7
:10356000A361E3612362636200F01EFA0123C4F8E1
:103570000C806360BDE8F8839CB000000C235843C6
:10358000064B1B5830B501205C6901EB4105A84092
:1035900020435861183343F8212030BD9CB000000F
:1035A0000C235843034B1A58012303FA01F111600D
:1035B000704700BF9CB000000C235843014B1B58C0
:1035C000986870479CB000000C235843014B1B586F
:1035D000996070479CB000002DE9F0410446174601
:1035E0001E468846FFF7ECFC00210546A068FEF762
:1035F000C1FF00232374069BA361079BE36123683B
:1036000084F811802022022DA77466611A600BD104
:1036100040F6B831A068FEF7ADFF18B1207CB0FAD3
:1036200080F04009BDE8F0810021A068FEF7A2FF0C
:103630000028F9D0F2E7FFFF03685A68282A13B57B
:1036400057D00AD8102A2CD0182A32D0082A09D1EB
:10365000417C01F0FE01996028E0402A63D00DD83A
:10366000382A77D05A68027420229A6110221A6090
:1036700008229A611A68D206FCD426E0502A5BD050
:10368000582AEFD14269996811700022C261202244
:103690009A6110221A6008229A611A68D106FCD435
:1036A00013E0427C42F001029A6008229A6102B063
:1036B00010BDC469202199610822C4B99961102103
:1036C00019609A611A68D106FCD4002301A98068A8
:1036D0000193FEF75FFE019B002BE8D01F4B4FF0DC
:1036E00080521A60BFF34F8FBFF36F8FDFE7817C8B
:1036F000B1E7427CD20702D520221A60D5E7C26921
:103700004AB920229A6110221A6008229A611A6826
:10371000D406FCD4D9E78169013A11F8014B9C60C9
:103720008161C261C1E720229A61C269012A4FF01A
:103730000402E2D89A61B8E7426999681170426957
:1037400001324261C269013A012AC2614FF00402AA
:10375000D3D1EFE75B680374B7E700BF04ED00E087
:103760000148FFF769BF00BF7C0000100148FFF768
:1037700063BF00BF5C0000100148FFF75DBF00BFE2
:103780003C0000102DE9F043264B064615468946BD
:1037900093E8070085B004AB03E9070040F60A335D
:1037A000ADF800300C238DF802301F4A7301D71892
:1037B000D45804AB334403220021012013F8108CA9
:1037C000FEF790FCB8600120FEF773FDF8604046FC
:1037D00000F0C6F86C23A361144A154B914588BFCD
:1037E00099462823B5FBF9F25208C8215343B3FB8D
:1037F000F1F323613C235A430023B2FBF1F26261EF
:10380000A36263622362E3604023236004AB03EBA3
:1038100086067A6856F80C1C404605B0BDE8F043B1
:1038200000F0C2B8E4B000003C00001040420F00BD
:10383000A08601002DE9F3410F4690461D4623B9AD
:103840000025284602B0BDE8F0810E4C04EB401480
:103850004FF0FF31E068FEF78DFE0028F0D0002623
:10386000089B019342462B4647F0010100962046F3
:10387000FFF7B2FE3346054632463146E068FEF7B2
:1038800055FCDEE73C0000101FB500238DF80F301B
:10389000012300930DF10F03FFF7CCFF9DF80F00FC
:1038A00005B05DF804FBFFFFF7B50E4617461D4651
:1038B0001BB90025284603B0F0BD0E4C04EB4014A4
:1038C0004FF0FF31E068FEF755FE0028F1D0089B6D
:1038D0003A46CDE9005306F0FE0100232046FFF7EB
:1038E0007BFE002305461A461946E068FEF71EFCDB
:1038F000E0E700BF3C0000101FB5002200920DF170
:103900000F038DF80F20FFF7CFFF05B05DF804FB24
:103910001FB58DF80F30012300930DF10F03FFF752
:10392000C3FF05B05DF804FBFEE7FFFF08B5FFF736
:103930005BFC084B084A1B78103BDBB252F8233083
:103940009847064B00221A601B68BDE80840FFF745
:103950005FBC00BF04ED00E09C000010D41200101A
:10396000592809D8054B064A185CD2F8C41001231F
:1039700083400B43C2F8C430704700BFFFB0000063
:1039800000C00F4059289FBF054B064AD3F8C430EA
:10399000105C9ABF23FA00F000F00100002070478D
:1039A00000C00F40FFB00000592808BF1920084B85
:1039B00043F8201043B2002B08DB012200F01F0067
:1039C00002FA00F05B09034A42F82300704700BF87
:1039D0009C00001000E100E073B54FF0FF33B1F53B
:1039E000805F019336D21D4C2369DE0734D41C4B13
:1039F0001D69ED0730D41B4D0326AE602E611A4DB4
:103A00001D6002B301AE5E6041F00046DE6041F22F
:103A10000F061E61DAB1206041F0806140F681122C
:103A2000E16065602261114A516A41F0030151620F
:103A3000D868C0F30B000028FAD1536A23F00303BF
:103A4000536202B070BD586041F00846DEE701AA3B
:103A50002260E3E70120F4E70220F2E700010820FA
:103A6000200108200000082008C00A4000C00A40C9
:103A700010B50446FCF7D2FB4FF47A73B0FBF3F0B9
:103A80000223B0FBF3F2A24202D8034A136110BD35
:103A90000233DBB2F5E700BF00C00A4010B50446B0
:103AA0002420FFF75DFF0B4B07221A6002225A60A9
:103AB0002046FFF7DDFF1A20FFF752FF064B0122D9
:103AC0001A631A6BD207FCD5044A0023936042F8AC
:103AD000183C10BD00C00A4000000820200108204A
:103AE000034B9860DA68D206FCD49868C0B270477D
:103AF00000C00A400122FFF76FBF0022FFF76CBF32
:103B000002689368C3F34203022B73B5064623D0C1
:103B1000062B21D0012B34D100248DF803400194D1
:103B2000102501AA0DF10301B068FEF7E3FD48B1CD
:103B300033689DF803201A70019B002B18BF0124E5
:103B4000013DEED10CB3124B4FF080521A60BFF31F
:103B50004F8FBFF36F8F18E00024019433681A7DF4
:103B6000D207EFD51B788DF8033001AA00230DF1A1
:103B70000301F068FEF7B0FB019B002B18BF012486
:103B8000ECE7137DDBB20193019B02B070BD00BF77
:103B900004ED00E00148FFF7B3BF00BF7001001063
:103BA0000148FFF7ADBF00BF600100100148FFF7FB
:103BB000A7BF00BF500100100148FFF7A1BF00BF21
:103BC00040010010134B70B516460546185C0C46B4
:103BD0003601FFF7C5FEB4FBF6F307EE903AF8EEB8
:103BE000677AB6EE007A77EE877A2D01FCEEE77AF7
:103BF000094A17EE903A52599BB280211173190A63
:103C0000DBB211711370102382F82830072313736D
:103C100070BD00BF84B1000040010010074B10B51B
:103C20000446185CFFF7AEFE30B12401044B1B596B
:103C3000187B003018BF012010BD00BF84B1000008
:103C400040010010034B03EB00108068003018BFE8
:103C500001207047400100102DE9F84307468946CE
:103C60009046FFF7DBFF064618B900263046BDE850
:103C7000F883144C3D016319DA6822B9B9F1000FD9
:103C800001D0C3F80C9063199A6822B9B8F1000FFB
:103C900001D0C3F808806319DA68002AE5D09A6871
:103CA000002AE2D05A68084B53F82710074BD85D1A
:103CB000FFF77AFE635941221A7206221A7207220E
:103CC0005A60D3E74001001074B1000084B10000D5
:103CD00038B5074A03010D46D458FFF79FFF30B1AE
:103CE000237D9A06FCD52570237D9B06FCD538BD27
:103CF0004001001070B504460E461546FFF760F906
:103D00000E4B03EB0413DC68B4B1022814D16B1C16
:103D100009D04FF47A70A5FB00014FF47A720023AA
:103D200000F076F805462A4631462046FEF784FB29
:103D3000003018BF012070BD0020FCE740010010DA
:103D40002DE9F84305460E46114CFFF739F92F01CE
:103D5000E31981462846D3F80C80FFF75FFF98B13E
:103D6000B9F1020F0AD1B8F1000F07D03146284649
:103D70004FF0FF32BDE8F843FFF7BCBFE3591A7DAF
:103D8000D207FCD51B7833700020BDE8F88300BF54
:103D900040010010F7B505461C4E8DF807102D01A7
:103DA0001746FFF70DF973199C6854B302282BD1FD
:103DB000791C09D04FF47A70A7FB00014FF47A7296
:103DC000002300F025F8074600233A460DF10701CD
:103DD0002046FEF7ABF9041C18BF0124FDF7D2FE04
:103DE000731975592A7D520609D500220DF1070174
:103DF0009868FEF77FFC10B19DF807302B70FDF737
:103E0000E3FE204603B0F0BD0024FAE740010010B5
:103E100053B94AB9002908BF00281CBF4FF0FF3131
:103E20004FF0FF3000F074B9ADF1080C6DE904CE2D
:103E300000F006F8DDF804E0DDE9022304B0704785
:103E40002DE9F047089E04468846002B40F0858007
:103E50008A42154648D9B2FA82F24AB1C2F1200725
:103E600001FA02F320FA07F7954047EA0308944065
:103E70004FEA154E230CB8FBFEF71FFA85FC0EFB2C
:103E8000178843EA084307FB0CF1994209D9EB185C
:103E900007F1FF3080F0E380994240F2E080023F7A
:103EA0002B445B1AA4B2B3FBFEF00EFB103344EAC2
:103EB000034400FB0CFCA44509D92C1900F1FF3385
:103EC00080F0CB80A44540F2C88002382C4440EA00
:103ED0000740A4EB0C0400271EB1D4400023C6E920
:103EE00000433946BDE8F087002A53D0B2FA82F287
:103EF000002A40F0B680491B4FEA154E1FFA85F89C
:103F00000127B1FBFEFC230C0EFB1C1143EA01430D
:103F100008FB0CF1994207D9EB180CF1FF3002D2E3
:103F2000994200F2EC808446591AA3B2B1FBFEF02C
:103F30000EFB101443EA044408FB00F8A04507D91F
:103F40002C1900F1FF3302D2A04500F2DC801846A4
:103F5000A4EB080440EA0C40BEE78B4208D9002ECF
:103F600078D00027C6E9000138463946BDE8F08719
:103F7000B3FA83F77FB98B4202D3824200F2BD804D
:103F8000841A61EB030301209846002EA9D0C6E9EC
:103F90000048A6E7FFDEC7F12005BB4022FA05FC7A
:103FA0004CEA030C01FA07F420FA05F821FA05F3AC
:103FB0004FEA1C4E48EA0404B3FBFEF9210C0EFB49
:103FC00019331FFA8CF841EA034309FB08FA9A45B2
:103FD00002FA07F200FA07F10BD91CEB030309F10F
:103FE000FF3080F088809A4540F28580A9F102096F
:103FF0006344A3EB0A03A4B2B3FBFEF00EFB103341
:1040000044EA034400FB08F8A04508D91CEB04046B
:1040100000F1FF336BD2A04569D90238644440EA0D
:104020000940A4EB0804A0FB02894C45C6464B4658
:1040300054D351D0002E69D0B1EB0E0264EB0304CF
:1040400004FA05F522FA07F3FC401D43C6E90054C3
:10405000002746E73746304643E7184637E7074626
:104060001FE7C2F1200320FA03F7954001FA02F09E
:1040700021FA03F34FEA154E3843010CB3FBFEF768
:104080001FFA85F80EFB173341EA034107FB08F3DB
:104090008B4204FA02F407D9691807F1FF3C28D2D1
:1040A0008B4226D9023F2944CB1A81B2B3FBFEF0E2
:1040B0000EFB103341EA034100FB08F38B4207D9A2
:1040C000691800F1FF3C10D28B420ED90238294406
:1040D000C91A40EA074714E74145ABD2B8EB020ED4
:1040E00069EB0C0201381346A4E76046F0E7184676
:1040F00095E76746D8E781467BE7384645E7ACF168
:10410000020C2B4410E702382C4421E73746E8E63E
:10411000704700BF0A22002102F086B90EB403B531
:10412000014603AB054853F8042B0068019300F0E7
:104130009DF902B05DF804EB03B0704780010010F8
:1041400070B50E461446054618B183690BB903F0E5
:104150000DFA2B4B9C421ED16C68636EDA0705D4B6
:10416000A3899B0502D4A06D00F06BF8A389180702
:104170001BD52369CBB1013E16F8011F39BB656E13
:1041800015F0010539D1A389990502D4A06D00F07D
:1041900059F8284670BD1B4B9C4201D1AC68DCE746
:1041A000194B9C4208BFEC68D7E72146284602F02D
:1041B000FFF90028DFD0636EDA0705D4A3899B05D9
:1041C00002D4A06D00F03EF84FF0FF35E1E7A368A0
:1041D000013B002BA36004DAA269934206DB0A29A3
:1041E00004D023685A1C22601970C5E7224628466D
:1041F00002F08CF90130BFD1DDE70D46C9E700BF01
:1042000058B3000078B3000038B30000024B0A46F0
:1042100001461868FFF794BF80010010074B10B5E6
:104220001C6824B1A36913B9204603F09FF96168A3
:104230002046BDE8104003F07BBD00BF80010010A8
:10424000704770477047FFFF024B0146186800F047
:1042500089B800BF80010010024B0146186800F0C9
:1042600033B800BF800100100A44914200F1FF33CF
:1042700000D1704710B511F8014B03F8014F91427E
:10428000F9D110BD884210B501EB020302D9834277
:104290001C4607D8421E994208D011F8014B02F87B
:1042A000014FF8E783189A1A9A4200D110BD14F80A
:1042B000011D03F8011DF7E702440346934200D1B4
:1042C000704703F8011BF9E738B50546002945D0CA
:1042D00051F8043C0C1F002BB8BFE41803F038FE63
:1042E0001F4A1368104633B9636014602846BDE85E
:1042F000384003F033BEA3420CD9216862189342C0
:1043000004BF1A685B68636004BF521822600460CF
:10431000ECE713465A680AB1A242FAD9196858184C
:10432000A0420BD120680144581882421960DDD1A7
:10433000106852685A6001441960D7E702D90C230B
:104340002B60D3E7206821188A4204BF11685268A5
:10435000626004BF091821605C60C7E738BD00BF18
:10436000D8120010F8B5CD1C25F0030508350C2D2A
:1043700038BF0C25002D064601DBA94203D90C23CA
:1043800033600020F8BD03F0E3FD21490A681446BC
:104390009CB9204F3B6823B92146304601F054F8C0
:1043A00038602946304601F04FF8431C23D10C23D6
:1043B0003360304603F0D2FDE3E723685B1B17D47C
:1043C0000B2B03D923601C44256004E06368A242E0
:1043D0000CBF0B605360304603F0C0FD04F10B00CE
:1043E000231D20F00700C21ACCD01B1AA350C9E726
:1043F00022466468CCE7C41C24F00304A042E3D046
:10440000211A304601F020F80130DDD1CFE700BF9E
:10441000D8120010DC1200109368013B002B10B47E
:10442000936008DA9469A34201DB0A2903D15DF89D
:10443000044B02F06BB81368581C106019700846E2
:104440005DF8044B7047F8B506460F461446D5187C
:10445000AC4201D1002007E03A4614F8011B304677
:10446000FFF7DAFF431CF3D1F8BDFFFF2DE9F04F52
:104470000D469DB014461E46074618B183690BB918
:1044800003F074F8854B9D421BD17D686B6ED90794
:1044900005D4AB899A0502D4A86DFFF7D2FEAB898B
:1044A0001B0701D52B69EBB92946384602F080F885
:1044B000C0B16B6ED8070ED54FF0FF301DB0BDE810
:1044C000F08F774B9D4201D1BD68DFE7754B9D4270
:1044D00008BFFD68DAE7AB899905EDD4A86DFFF751
:1044E000B1FEE9E70023099320238DF82930DFF896
:1044F000B891039630238DF82A304FF0010A2346F5
:104500001E4613F8012B0AB1252AF9D1B6EB040B8C
:104510000BD05B46224629463846FFF794FF013010
:1045200000F0A380099B5B4409933378002B00F0D3
:104530009C8000234FF0FF32CDE905230136049320
:1045400007938DF853301A933446052214F8011B53
:10455000554803F0ADFC049BC0B9DA0644BF2022E5
:104560008DF85320180744BF2B228DF85320327842
:104570002A2A13D0079A344600200A26214611F829
:10458000013B303B092B4BD970B914E0A0EB09007B
:104590000AFA00F0184304902646D5E7039A111D45
:1045A00012680391002A01DB079204E0524243F0B3
:1045B00002030792049323782E2B0CD163782A2BC5
:1045C00033D1039B1A1D1B680392002BB8BF4FF019
:1045D000FF3302340593354E21780322304603F031
:1045E00067FC38B14023801B03FA00F0049B0343AF
:1045F0000134049314F8011B2D488DF8281006226D
:1046000003F056FC00283FD02A4B13BB039B073313
:1046100023F0070308330393099B434409936EE790
:1046200006FB023201200C46A8E700230134059363
:1046300019460A26204610F8012B303A092A03D9D8
:10464000002BC8D00591C6E706FB012101230446D3
:10465000F0E703AB00932A46174B04A9384600F055
:10466000BDF8B0F1FF3F8046D6D16B6ED90705D4B7
:10467000AB899A0502D4A86DFFF7E4FDAB895B0610
:104680003FF51AAF099819E703AB00932A460A4B86
:1046900004A9384600F042FBE3E700BF58B300002E
:1046A00078B3000038B3000090B2000096B200006A
:1046B0009AB20000DD470000474400002DE9FF47A3
:1046C00055EC104B002D0E4691461946DDF830A0F2
:1046D0004FF0000203DA05F100431D462D220D9F25
:1046E0000A7027F02007462F04D0452F00D101364D
:1046F000022100E0032103AB019302AB0093324699
:10470000534645EC104B02F04BF8472F804602D140
:1047100019F0010F22D0462F08EB060911D198F8A5
:104720000030302B0AD1002200232046294605F014
:1047300069FB18B9C6F10106CAF80060DAF8003062
:104740009944002200232046294605F05BFB08B16E
:10475000CDF80C903022039B4B4508D3039B0E9A57
:10476000A3EB08034046136004B0BDE8F087591C72
:1047700003911A70EFE7F7B50029BABF49422D231C
:104780002B2309290270437021DD0DF107031F4619
:104790000A2691FBF6F206FB12143034632903F16A
:1047A000FF3503F8014C0ADC303205F8012C023BDE
:1047B000821CBB42144605D3201A03B0F0BD2B4621
:1047C0001146E6E713F8011B02F8011BF1E730235D
:1047D00019448370041DC170EEE7FFFF2DE9F04F0F
:1047E0008DB00C46DDF8588016461F46054603F08E
:1047F000DFFA03680693184600F047FF00230A9388
:10480000D8F800300790073323F0070303F10802BC
:1048100094F818A0D4F800B0C8F80020D3E9002319
:10482000C4E9122394ED127B8DED047BDDE9048352
:1048300023F000494FF0FF32A64B4046494605F0B1
:1048400013FB70BB4FF0FF32A24B4046494605F0C8
:10485000EDFA30BB00220023DDE9040105F0DCFAAB
:1048600010B12D2384F843309B4A9C4BBAF1470F7B
:1048700094BF9046984603232BF0040223612260E4
:104880004FF00009009733460BAA2146284600F056
:10489000CFF9013040F08C804FF0FF300DB0BDE813
:1048A000F08FDDE904231046194605F0DDFA40B12A
:1048B000059B8B4A002BBCBF2D2384F84330894BCA
:1048C000D4E763685A1C0AF0DF093ED1062363600F
:1048D000002303930AAB4BF48062CDE901A309AB3B
:1048E0000093616822600DF123039DED040B2846BF
:1048F000FFF7E4FEB9F1470F8046099908D1C81CBB
:1049000002DB6368994241DDAAF1020A5FFA8AFA82
:10491000BAF1650F20D80139524604F150000991CF
:10492000FFF729FF0A9A1318012A8146236102DC46
:104930002268D20701D5013323619DF82330002B73
:10494000A0D02D2384F843309CE7B9F1470FBFD1A5
:10495000002BBDD10123BAE7BAF1660F18D10029A7
:1049600063680BDD216113B92268D00702D50133DA
:104970000B442361A1654FF00009DEE713B92268FB
:10498000D20701D50233F4E70123F2E74FF0670ABB
:104990000A9B994205DB23682161D807EAD54B1CA5
:1049A000E7E70029D4BFC1F1020201221344E0E786
:1049B00023685A0507D42369424631462846B8473A
:1049C00001302BD168E7BAF1650F40F2DC8000229C
:1049D0000023D4E9120105F015FA002833D0012391
:1049E000414A31462846B84701303FF455AFDDE92A
:1049F00009239A4202DB2368D8070FD5DDE9062395
:104A000031462846B84701303FF446AF4FF0000822
:104A100004F11A090A9B013B434509DC23689B0703
:104A200000F10181E0680B9B9842B8BF184635E75A
:104A300001234A4631462846B84701303FF42CAF9F
:104A400008F10108E6E7099B002B2BDC0123264A2D
:104A500031462846B84701303FF41EAFDDE909234F
:104A6000134302D12368D907D8D5DDE9062331469F
:104A70002846B84701303FF40FAF4FF0000904F16A
:104A80001A0A099B5B424B4501DC0A9B94E7012310
:104A9000524631462846B84701303FF4FDAE09F191
:104AA0000109EEE70A9AA36D9A42A8BF1A46002AA6
:104AB000914607DD1346314642462846B847013045
:104AC0003FF4EAAE04F11A034FF0000B29EAE9794A
:104AD000049315E0FFFFEF7FA1B20000A5B2000034
:104AE000A9B20000ADB2000018AC00000123049A86
:104AF00031462846B84701303FF4CEAE0BF1010BEA
:104B0000D4F858A0AAEB09035B45EFDCDDE90923E3
:104B10009A421BDB2368DA0718D4DDE909239245A2
:104B20001CDBA3EB0A09B9F1000F08DD4B4608EBCB
:104B30000A0231462846B84701303FF4ADAE4FF087
:104B4000000829EAE97904F11A0A14E0DDE90623EC
:104B500031462846B8470130DFD19DE6A3EB020974
:104B6000E1E70123524631462846B84701303FF479
:104B700093AE08F10108DDE909239B1AA3EB0903B1
:104B80004345EEDC4AE70A9A012A01DCDB0737D508
:104B90000123424631462846B84701303FF47CAEF7
:104BA000DDE9062331462846B84701303FF474AEAC
:104BB00000220023D4E9120105F024F9D8B90A9B98
:104BC00008F10102013B31462846B84701300ED1B9
:104BD00062E60123524631462846B84701303FF489
:104BE0005BAE08F101080A9B013B4345F1DC4B46F3
:104BF00004F15002E1E64FF0000804F11A0AF2E76E
:104C000001234246DFE701234A4631462846B8479A
:104C100001303FF441AE08F10108E3680B9A9B1A9A
:104C20004345F0DCFEE64FF0000804F11909F4E713
:104C30002DE9F04791461F468A680B69DDF8208010
:104C40009342B8BF1346C9F8003091F84320064696
:104C50000C4612B10133C9F800302368990642BFEF
:104C6000D9F800300233C9F80030256815F0060580
:104C700007D104F1190AE368D9F800209B1AAB4266
:104C800028DC94F843302268003318BF01239206D1
:104C90002DD404F1430239463046C047013020D0BC
:104CA0002368E568D9F8002003F00603042B08BF49
:104CB000AD1AA36822690CBF25EAE5750025934269
:104CC000C4BF9B1AED184FF000091A344D451AD194
:104CD000002008E00123524639463046C0470130E3
:104CE00003D14FF0FF30BDE8F0870135C3E7E1188D
:104CF0005A1C302081F84300224494F8451082F871
:104D000043100233C5E70123224639463046C047E7
:104D10000130E6D009F10109D8E7FFFF2DE9F043A2
:104D200006460C4601F14300097E85B06E2998467F
:104D300017460C9B00F0BA8024D8632939D00AD8D2
:104D4000002900F0C380582900F0918004F1420549
:104D500084F8421035E0642901D06929F6D125682C
:104D60001A6815F0800F02F104012CD01268196046
:104D7000002A03DA2D23524284F84330DFF8BCC105
:104D80000A233FE0732900F0A58008D86F2921D0BD
:104D90007029DBD1226842F02002226003E07529ED
:104DA00018D07829D2D1782284F84520DFF890C134
:104DB00061E01A68111D1960136884F8423004F12B
:104DC0004205012393E01268196015F0400F18BFE7
:104DD00012B2CDE7D4F800C01A681CF0800F02F1BF
:104DE00004051D6001D0126803E01CF0400FFAD0EA
:104DF0001288DFF848C16F290CBF08230A2300215D
:104E000084F843106568A560002DA2BF216821F0D9
:104E1000040121600AB9002D46D00546B2FBF3F12A
:104E200003FB112E93421CF80EE005F801ED39D971
:104E3000082B0BD12368DA0708D5236962689A42E8
:104E4000DEBF302305F8013C05F1FF35401B206132
:104E5000CDF800803B4603AA21463046FFF7E8FE26
:104E6000013049D14FF0FF3005B0BDE8F083DFF8E5
:104E7000CCC084F845101D68216855F8042B1D60CE
:104E80000D060BD5CD0744BF41F0200121601AB9B2
:104E9000236823F0200323601023B0E74B0648BFAC
:104EA00092B2EFE70A46B9E70546C1E71A68D4F8B7
:104EB00000C06169151D1D601CF0800F136801D0D2
:104EC000196003E01CF0400FFAD019800023236121
:104ED0000546BDE71A68111D196015686268002152
:104EE000284602F0E5FF08B1401B6060636823615B
:104EF000002384F84330ABE723692A46394630461D
:104F0000C0470130AED023689B0713D4E068039BF1
:104F10009842B8BF1846A7E701234A4639463046AB
:104F2000C04701309ED00135E368039A9B1AAB421B
:104F3000F2DCEBE7002504F11909F5E7B1B2000056
:104F4000C2B200002DE9F04F87B0174603938B687B
:104F50005A1EB2F5AE7F83BF6FF4AE755B19029334
:104F6000002386BF40F25D138B6002930B688B4673
:104F7000002543F4F0634BF81C3BCDE90455814612
:104F80000C465E46AA46A8460195A26882B13B68D7
:104F90001B78492B75D04FD8392B41D8312B80F055
:104FA00087802D2B00F08F8017D82B2B00F08B8063
:104FB000B8F1000F03D0236823F4807323600AF153
:104FC000FF3ABAF1010F00F2DD805E4500F2CF80BA
:104FD0000125284607B0BDE8F08F2E2B00F0938006
:104FE000302BE5D12168C80562D5029B21F08001F4
:104FF000216008F101081BB1013B01320293A2605C
:10500000A368013BA3602369013323617B68013BF3
:10501000002B7B6040F3A2803B6801333B60B4E728
:10502000452B7AD0462B64D0412BC1D1BAF1010F68
:10503000BED14FF0020A43E0652B6ED01AD8542B34
:105040005CD013D84E2BB3D1BAF1000F42D1B8F1D6
:10505000000F42D1226802F4E061B1F5E06F3CD16B
:1050600022F4F06222604FF0010A29E0592B1BD094
:10507000612BDAE76E2BE7D012D8662B39D0692B7B
:1050800096D195BBB8F1000F95D1226802F4E0618A
:10509000B1F5E06F93D122F4F062226001250FE0B8
:1050A000742B2BD0792B83D1072D81D1082507E0D4
:1050B0001AEB050F7FF47CAF226822F4C0722260E5
:1050C00006F8013B9CE7226810067FF571AF22F0DD
:1050D0008002F4E7BAF1020F3DD0012D02D0042D79
:1050E0007FF466AF0135EDB2EAE7032DFAD0052D66
:1050F000F6E7022D7FF45CAF0325E1E7062D7FF490
:1051000057AF0725DCE7226891057FF551AF22F400
:1051100020722260CDF80480D2E7226802F4A061F8
:10512000B1F5806F06D050057FF542AFB8F1000FA2
:105130003FF445AF910558BF019922F4F06258BF82
:10514000A8EB010142F4C07258BFCDE904162260F9
:105150004FF00008B4E74FF0030AB1E7D4F880310C
:1051600039464846984700283FF40FAF20E7D4F867
:105170007C3116F8011D3A46484698472369013BA1
:10518000236122E76B1E062B25D8022D36D85E45FB
:105190007FF61EAFD4F87C3116F8011D3A4648461A
:1051A00098472369013B2361F1E70298D4F87C31E9
:1051B00010F8011D02903A46484698472369013B82
:1051C00023610AF1FF3A5FFA8AFABAF1020FECD1D1
:1051D000033DEDB2761B2368DA052FD55B0510D5AC
:1051E0005E457FF6F5AED4F87C3116F8011D3A46DF
:1051F000484698472369013B2361F1E7AA46029696
:10520000DFE716F8011C2369652903F1FF3306F176
:10521000FF3523610CD045290AD0D4F87C313A46B9
:1052200048469847236916F8021C013BB51E2361C6
:10523000D4F87C313A46484698472E46256815F002
:10524000100558D13570236803F4C063B3F5806F3F
:105250001CD1019B4345A3EB080224D100225946EF
:10526000484601F061F8039B21681B6811F0020FAA
:1052700057EC106B03F1040220D003990A601B68FD
:10528000C3E90067E3680133E360A2E6049B002BF7
:10529000E4D005990A232A460131484601F0C2F8B4
:1052A000049B059EC21A04F26F139E4228BF04F5A8
:1052B000B7761249304600F09FF9CFE711F0040F9E
:1052C00003990A60DBD1D3F8008010EE102A3B4628
:1052D00010EE100A394604F0C7FD28B1084800F066
:1052E00085F988ED000ACDE73046394604F01AFE0C
:1052F000C8F80000C6E700256BE600BFD3B2000087
:105300007FA400000FB40A4B13B51C6824B1A36935
:1053100013B9204602F02AF905AB049AA16801935B
:105320002046FFF7A3F802B0BDE8104004B0704774
:105330008001001038B5084B1C68054624B1A369EC
:1053400013B9204602F012F9A26829462046BDE8AA
:10535000384003F077BE00BF8001001070B50E46E4
:10536000054618B183690BB902F000F9AB69AC6866
:1053700013B9284602F0FAF82C4B9C4220D16C68F5
:10538000636EDB0705D4A389980502D4A06DFEF7F0
:1053900058FFA38919071DD52369DBB1013EA36816
:1053A00016F8011F013BA36039BB002B38DA2246F7
:1053B0000A21284601F0AAF8013011D00A2511E08F
:1053C0001B4B9C4201D1AC68DAE71A4B9C4208BFE8
:1053D000EC68D5E72146284601F0EAF80028DDD040
:1053E0004FF0FF35636EDA0705D4A3899B0502D41D
:1053F000A06DFEF727FF284670BD002B04DAA269D6
:105400009A4206DC0A2904D023685A1C22601970CB
:10541000C5E72246284601F079F80130BFD1DFE721
:1054200023680A255A1C22601D70DBE758B3000070
:1054300078B3000038B30000024B01461868FFF74C
:105440008DBF00BF8001001038B5064C0023054613
:1054500008462360FAF776FF431C02D1236803B1A4
:105460002B6038BDEC1200102DE9F7431E465B4B54
:105470001D6804460F46904625B1AB6913B928460E
:1054800002F074F8564B9C4266D16C68B8F1020F7A
:1054900006D0B8F1010F00F29D80002EC0F29A8074
:1054A000636EDA0705D4A3899B0502D4A06DFEF7CD
:1054B000C8FE2146284601F0B3FF616B41B104F1FB
:1054C0004403994202D02846FEF7FEFE00236363A0
:1054D0000023A3616360A389180603D521692846C8
:1054E000FEF7F2FEA38923F44A6323F00303B8F125
:1054F000020FA3816AD001AB6A462146284602F01A
:105500005BFCA3891843A081002E2FD1009E30465A
:10551000FEF79AFE0746002853D1DDF80090B1450A
:1055200048D14FF0FF350022A26004F1470222600B
:1055300022610122B4F90C306261626E43F0020311
:10554000D107A38104D49B0502D4A06DFEF77AFE97
:10555000284603B0BDE8F083224B9C4201D1AC68E1
:1055600094E7214B9C4208BFEC688FE7002FCED018
:10557000AB6913B9284601F0F9FFB8F1010F08BF74
:10558000A389276004BF43F00103A381A38913F01B
:105590000802C4E904761BD0DA0741BF0022764234
:1055A000A260A66158BFA660656E15F00105CAD05D
:1055B0000025CDE74846FEF747FE07460028B0D055
:1055C0004E46A38943F08003A381D1E70025AAE7D3
:1055D000A260E9E74FF0FF35BAE700BF8001001095
:1055E00058B3000078B3000038B300009FED010A03
:1055F000704700BF0000C07F0EB400B59CB01DAB6B
:10560000029006906FF00041094807910491094902
:1056100053F8042B05910068019302A903F02CF9BB
:10562000029B00221A701CB05DF804EB03B07047B7
:10563000800100100802FFFF70B50C4D2E4610F8D7
:10564000013B5A5D02F00302012A11F8012BB45C00
:1056500004F0030408BF2033012C08BF20329B1A3A
:1056600001D1002AEBD1184670BD00BF89B10000FE
:10567000C9B2034610F8012B1AB18A42F9D1184673
:105680007047002918BF0023F9E7034613F8012BE0
:10569000002AFBD1181A01387047FFFF70B50F4E72
:1056A0000A448A4201D1002313E010F8014BA35DA4
:1056B00003F00303012B11F8013BF55C05F0030532
:1056C00008BF2034012D08BF2033E41A03D1002B7A
:1056D000E7D1184670BD2346FBE700BF89B1000043
:1056E00010B56AB10139841810F8013B11F8012F87
:1056F000934203D1A04201D0002BF5D1981A10BDDE
:105700001046FCE710B50139034632B111F8014FDC
:1057100003F8014B013A002CF7D11A4400219342BF
:1057200000D110BD03F8011BF9E7F0B50C7864B1A6
:1057300003461A7818465E1C0AB9104605E09442E2
:1057400008D10D4615F8012F02B9F0BD13F8017FFD
:105750009742F7D03346ECE770B504460D4645EC6A
:10576000104B164602F0C6FE51EC100B7EB1C5F38D
:105770000A53C3F16B03002B09DD1B0503F17F55B1
:10578000002405F5401522462B4604F0D3F870BDE1
:105790002DE9F04FA1B01F4600231C939B4B0490B2
:1057A0001B68179218460E460593FFF76EFF4FF0E1
:1057B000000A04464FF0000B1B961B9A13780D2B22
:1057C00032D8092B36D2002B3ED000230C931B9DE0
:1057D0002B78302B40F0A9806B78582B01D0782B98
:1057E00067D10C9B01931CAB009302971DAB884AB9
:1057F00004981BA901F0C2FF10F00704064605D06B
:10580000062C2BD1013500231B950C93179B002BE5
:1058100040F076850C9BE3B152460BF1004343EC1C
:10582000102B21B0BDE8F08F2B2B06D02D2B13D0E1
:10583000202BCAD101321B92BFE700230C93531CCB
:105840001B935378002BC2D1179B1B96002B40F063
:10585000558552465B46E2E70123EFE71C9A3AB1D1
:1058600035211EA802F03DFF1C99049802F0B0FB00
:10587000013C042C06D8DFE804F00A0314170A00E0
:10588000DDE91EAB3107C1D54BF0004BBEE7DDE9CA
:105890001EA31D9A23F4801302F2334243EA025BF3
:1058A000F0E7DFF870B1EDE76FF0004B4FF0FF3A33
:1058B000E8E71B9B5A1C1B925B78302BF9D0002B1E
:1058C000A4D001234FF0000906931B9B0993CDF848
:1058D0001C90C8460A221B980578A5F13003D9B25E
:1058E000092924D922460599FFF7FAFE78B300204A
:1058F0002B46444605900246652B01D0452B12D11C
:105900001CB9069B03439FD000241B9E731C1B9352
:1059100073782B2B72D02D2B75D00027A3F130017B
:1059200009297DD91B9600259AE00023CAE7B8F122
:10593000080FD8BF079900F10100DABF02FB01335D
:10594000079302FB093908F101081B90C3E71B9B71
:105950001A191B921B5DB8F1000F36D00590444612
:10596000A3F13002092A12D90122C5E71B9B5A1C58
:105970001B925B780130302BF8D0A3F13102082A5A
:1059800000F2C3841B9A0590002009920446303B24
:1059900000F1010213D00599114405912246051921
:1059A0000A21AA4213D12218082A04F1010404444E
:1059B0001ADC07990A2202FB0133079300221B9B82
:1059C000591C1B915B781046CAE74046D3E7082A6A
:1059D00004DC079F4F4307970132E2E7571C102F63
:1059E000D8BF01FB09F9F7E7102CDCBF0A2202FB44
:1059F0000939E3E700230593012282E70027B31C5E
:105A00001B93B3788AE70127F9E700BF98B300003A
:105A1000D8B200000000F07F1B9B591C1B915B78E3
:105A2000302BF9D0A3F1310108293FF67CAFA3F167
:105A3000300C1B9B08934FF00A0E1B9B591C1B91AB
:105A40005B78A3F13005092D2ED9089D491B082943
:105A500044F61F6502DC6545A8BF654607B16D4287
:105A6000002C4BD1069901437FF4D0AE002A7FF47D
:105A7000EBAE4E2B22D01CDC492B7FF4E5AE9A49CD
:105A80001BA802F0B1F800283FF4DEAE1B9B97493B
:105A9000013B1BA81B9302F0A7F810B91B9B013315
:105AA0001B93DFF860B2B1E60EFB0C3CACF1300C9E
:105AB000C3E7692BE3D06E2B7FF4C6AE8C491BA8DD
:105AC00002F092F800283FF4BFAE1B9B1B78282BF6
:105AD0000ED11EAA87491BA802F09AF8052807D103
