:1000000000000110E500000075010000590100002A
:100010007501000075010000750100007501000008
:10002000750100007501000075010000B92F000086
:100030007501000075010000BD2F0000C12F0000F8
:10004000614E0000614E0000614E0000614E0000F4
:10005000614E0000614E0000614E0000614E0000E4
:10006000614E0000614E0000614E0000614E0000D4
:10007000614E0000614E0000614E0000614E0000C4
:10008000614E0000614E0000614E0000614E0000B4
:10009000614E0000614E0000614E0000614E0000A4
:1000A000614E0000614E0000614E0000614E000094
:1000B000614E0000614E0000614E0000614E000084
:1000C000614E0000614E0000614E0000614E000074
:1000D000614E0000614E0000614E0000614E000064
:1000E000614E000008B500F057F900F073F900F018
:1000F0007BF900F09BF800F095F802F0EDFB02F0C0
:100100001DFB00F0BFF840B141F28734002502F03A
:100110000FFC8D4208BF8442F9D200F082F918B971
:100120000849094806F0F2FC0649084806F0EEFCCA
:1001300002F0B4FC064B07481B68D96805F06AFC5E
:10014000FEE700BF60B800006CB8000099B800007E
:1001500080010010B1B800001EF0040F0CBFEFF3D7
:100160000880EFF309808169004A1047D10100003F
:100170007047FFFF38B50F4C0F4B10481D782368B0
:10018000D96805F047FC23680D49D8682A4605F070
:10019000C9FB0F2D236807D80A4A0B4952F82520BE
:1001A000D86805F0BFFBFEE7D968084805F032FCC7
:1001B000F9E700BF8001001004ED00E0ECB800009A
:1001C00006B90000F4B9000040B900005EB90000B3
:1001D00010B5044600F04AF8236883606368C36082
:1001E000A3680361E3684361236943626369013B78
:1001F000C361A3698361E3690362BFF34F8F05495C
:10020000054BCA6802F4E0621343CB60BFF34F8F23
:1002100000BFFDE700ED00E00400FA05004870476C
:1002200000D8B8050048704700D8B8050E4B072223
:10023000C3F88420AA210122C3F88020C3F88C10BF
:100240005521C3F88C10C3F8A821D3F88820520593
:10025000FBD51A6822F4704242F480421A6040F2E0
:100260000112C3F80421704700C00F400248034A3E
:10027000034BC0E90023704700000020EFBEADDE55
:100280001041522138B5224C224B22689A423DD16E
:100290006268214B9A4239D1204D21482B68D96898
:1002A00005F0B8FB2B68A2691E49D86805F03AFB37
:1002B0002B68E2691C49D86805F034FB2B68226A78
:1002C0001A49D86805F02EFB2B68A2681849D8682F
:1002D00005F028FB2B68E2681649D86805F022FB78
:1002E0002B6822691449D86805F01CFB2B686269E9
:1002F0001249D86805F016FB2B681148D96805F03B
:1003000089FB01200023C4E9003338BD0020F9E750
:1003100000000020EFBEADDE104152218001001030
:1003200034BA000087BA000096BA0000A5BA0000EF
:10033000B4BA0000C3BA0000D2BA0000E1BA0000AB
:10034000F0BA00000E4A136810B50E4C1918A142FD
:10035000116002D30C4CA1420BD313600B4A0C4921
:1003600013681844884208D30A49884205D21060AD
:1003700001E0002BF2D0184610BD0023FBE700BFC0
:100380000000001028000020008000200400001061
:10039000FC12001000000110094A0A4B0A498B4266
:1003A00005D30A4B0A4A0021934205D3704712F83D
:1003B000010B03F8010BF2E703F8011BF4E700BFA0
:1003C0009CD20000000000105403001058030010DD
:1003D000FC120010034AD2F8883043F47003C2F8CC
:1003E0008830704700ED00E0044800232021C21847
:1003F0000133292B82F80013F9D1704700E100E0A6
:1004000008B52A2219233821022004F01BFD0D22F1
:100410003821022004F0D2FCA0F12A0358425841AE
:1004200008BDFFF7EDBF42884378007843EA022316
:1004300040EA032070470B0A017043700B0C090E51
:100440008370C170704710B5024410F8013B11F879
:10045000014B9042A3EB040301D0002BF5D01846CA
:1004600010BDC3690239023B8B4283BF4389006BD5
:1004700001FB030000207047024600F10B01002041
:10048000C30143EA500312F8010B50FA83F38A4286
:10049000D8B2F5D1704702684AB1134613F8011B70
:1004A0001F290BD93A29F9D1911C8B4202D04FF068
:1004B000FF3070471278302AF9D10360002070476E
:1004C00001380A4411F8013B00F8013F9142F9D18B
:1004D0007047CA7E8B7E032843EA022301BF487D12
:1004E0000A7D42EA002243EA024318467047C2F3FB
:1004F00007238A76CB760378032B01BF120C0A758B
:10050000120A4A75704770B500F13806426B04460E
:1005100001233146407801F0CCFA054688B9616B79
:10052000A36A226AE070CB1A934208D2A378022B06
:1005300005D10A4401233146607801F0BAFA284611
:1005400070BD0125FBE738B5436B8B4204460D4671
:1005500019D0C3788BB901232A4604F13801607899
:1005600001F093FA002818BF4FF0FF35034665638A
:100570000CBF03460123184638BDFFF7C4FF0346EE
:100580000028F8D1E7E70023F5E7FFFF38B500239F
:10059000C3704FF0FF3343630546FFF7D4FF0446B3
:1005A00018BB95F8372295F8363243EA02234AF60B
:1005B000552293421BD195F83830EB2B03D01833DA
:1005C000DBB2012B15D803220B4905F16E00FFF7B2
:1005D0003AFF40B10522094905F18A00FFF733FFD0
:1005E000002818BF0224204638BD0424FBE703245A
:1005F000F9E70224F7E700BF51BC000055BC00003A
:100600002DE9F043002385B00B600F461546FFF738
:1006100042FF061EC0F23981A44B53F82640002C3D
:1006200000F03581206901F095F9002800F0318152
:100630003C60237805F0FE056BB1607801F020FA8C
:10064000C10708D41DB110F0040500D00A252846C2
:1006500005B0BDE8F0830023F0B22370607001F0B4
:1006600001FAC20700F117810DB14307EED4002152
:100670002046FFF78BFF022840F0EE806F4604F51E
:10068000FF7104F23E263D4611F8040C10B10846F5
:10069000FFF7C9FE10318E4245F8040BF4D1002556
:1006A00057F8046B002E00F0CE8031462046FFF74D
:1006B0006DFF012800F2C88094F8442094F843307C
:1006C00043EA0223B3F5007F40F0CA8094F84F302C
:1006D00094F84E5055EA032504D104F15C00FFF76D
:1006E000A2FE054694F8481025624B1E012BA1700E
:1006F00000F2B68094F845901FFA89F36381002BCD
:1007000000F0AE8009F1FF3313EA090F40F0A88032
:1007100094F84A3094F8497047EA03273FB21FFA29
:1007200087F818F00F0FA4F8088040F0998094F82B
:100730004C3094F84B0050EA032003D104F15800E8
:10074000FFF771FE94F8472094F8463053EA0223ED
:1007500000F0868005FB01FC03EB18126244904216
:100760007ED3801A4845B0FBF9F179D350488142D5
:1007700076D84FF6F570814240F28F804FF0030932
:10078000023133443244B9F1030FE1616662A3627E
:10079000226369D194F8632094F8623043EA02231B
:1007A0001F433FB2002F5BD104F16400FFF73BFE13
:1007B000E062890001F2FF11B5EB512F50D34FF0E9
:1007C000FF33C4E90533B9F1030F4FF08003237100
:1007D0002FD194F8692094F8683043EA0223012B62
:1007E00027D1711C2046FFF7AEFE10BB94F83722CC
:1007F00094F83632207143EA02234AF65522934296
:1008000017D104F13800FFF70EFE2A4B984210D1A1
:1008100004F50770FFF707FE274B984209D104F54E
:100820000870FFF700FEA06104F50970FFF7FBFDFB
:100830006061224A84F80090138801339BB21380D0
:10084000E380002503E703200135042D7FF428AF62
:10085000042805D10125FAE60428FBD0012801D996
:100860000D25F4E6002627E7B8F1000FF8D0634421
:10087000B9F1020FE3624FEA41031BBF5B1801F0BD
:100880000101194601EB530194E70B25DFE60C2526
:10089000DDE60F25DBE60325D9E640F6F579494587
:1008A0008CBF4FF002094FF0010969E758030010AF
:1008B000F5FFFF0F52526141727241615C030010FB
:1008C00001292DE9F04705460C46174672D9C36940
:1008D0008B426FD90378022B3FD0032B50D0012BD2
:1008E00068D101EB5108816A01EB5821FFF72BFE1B
:1008F000064638BB05F1380908F1010AC8F30808B3
:1009000014F001041FBF19F8083003F00F023B0177
:1009100003F0F00314BF1343FBB209F80830A96ACF
:100920000123EB7001EB5A212846FFF70CFE064627
:1009300040B9CAF3080A44B1C7F3071709F80A70A7
:100940000123EB703046BDE8F08719F80A30C7F391
:10095000032723F00F031F43F0E7816A01EB142103
:10096000FFF7F1FD06460028ECD1640005F13803DD
:1009700004F4FF741A191F55C7F307275770DFE7F0
:10098000816A01EBD411FFF7DEFD06460028D9D1BC
:10099000A40005F1380304F4FE741C442046FFF75C
:1009A00042FD27F0704700F0704139432046FFF7C1
:1009B00042FDC5E70226C5E70129F8B505460C4604
:1009C00052D9C36999424FD20378022B29D0032B05
:1009D00038D0012B48D101EB5106816A01EB562139
:1009E000FFF7B1FD10B14FF0FF30F8BD771CA96AD9
:1009F000C6F308062E4401EB5721284696F83860C6
:100A0000FFF7A1FD0028EED1C7F308073D44E30737
:100A100095F8380046EA00204CBF0009C0F30B00EF
:100A2000E3E7816A01EB1421FFF78DFD0028DAD19D
:100A30006400383504F4FF742B19285D5B7840EAB4
:100A40000320D2E7816A01EBD411FFF77CFD002877
:100A5000C9D1A40005F1380004F4FE742044FFF766
:100A6000E2FC20F07040C0E70120BEE7B1F5001FB6
:100A7000F8B506460D4601D30220F8BDCA06FBD1E3
:100A8000826804683161CAB92378022B01D9E36A0C
:100A90009BB92389B3EB551FEED9E36AB361B36900
:100AA0007261002BE8D003EB55233834C5F30805F9
:100AB0002C44B361F4610020DFE71A4667897F02A6
:100AC000BD42114604D22046FFF7CBFCB061E6E7F9
:100AD0003068FFF771FF431C024606D00128CBD9CE
:100AE000E3698342C8D9ED1BEAE70120C5E72DE998
:100AF000F041804605680F4649B96E69C6B1EB6999
:100B0000B34298BF0126AB69A3B9002406E028468A
:100B1000FFF752FF0128044603D801242046BDE810
:100B2000F081421C51D0EB698342F7D83E46EAE798
:100B30000126E8E7BE4215D1EB69D8F80000741C25
:100B4000A34298BF02242146FFF736FF0128E4D0D4
:100B5000431C3AD0D8B16B69012B03D9EA6993429F
:100B600038BF1E463446EB690134A34202D8012E39
:100B7000CBD902242146D8F80000FFF71DFF40B171
:100B80000128CAD0013020D0B442ECD1BDE7002CFE
:100B9000E8D04FF0FF3221462846FFF791FE90B98A
:100BA00057B9D5E90632023A93426C6110D92B79D4
:100BB00043F001032B71B1E7224639462846FFF77F
:100BC0007FFE0028EDD00128A7D14FF0FF34A5E724
:100BD000013BAB61EBE7F8B50D46012D0746114629
:100BE00004682BD9E369AB4228D92AB14FF0FF3210
:100BF0002046FFF765FE30B929463868FFF7DCFE6E
:100C0000064608B90020F8BD012817D0431C17D0AC
:100C1000002229462046FFF753FE0028F3D1D4E9ED
:100C20000632911E8B4205D20133A361237943F032
:100C300001032371B2423546DED8E3E70220E2E742
:100C40000120E0E740B1A1F10B03012B04D90F29EA
:100C500002D0006900F087BE704738B50D460446E3
:100C6000F0B10368DBB11A78B2B18188DA889142B9
:100C700012D1186900F06EFE034698B123685878C7
:100C800000F0FEFE10F0010002D124682C6038BD97
:100C900000212068FFF7D6FF09200024F6E71C4654
:100CA0000920F3E70F201C46F0E7F8B5C3780446A7
:100CB0000D46C3B929462046FFF7D3FB04F1380699
:100CC0000746606304F50E723346002103F8011BEA
:100CD0009342FBD1002563899D420AD36089401B62
:100CE00018BF0120F8BDFFF70EFC0028E2D001205C
:100CF000F8E701237A193146607800F0DAFE00281F
:100D0000ECD10135E7E72DE9F8430769056820379D
:100D1000B7F5001F24BF0023836183690446894619
:100D200073B1C7F30808B8F1000F39D14169013335
:100D3000836139B92B89B3EB571F31D80023A361E5
:100D400004200BE06B89013B13EA572328D1284686
:100D5000FFF732FE0128064602D80220BDE8F883DC
:100D6000421C01D10120F9E7EB69834212D8B9F1A5
:100D7000000FE3D061692046FFF7B9FE0646A8B12F
:100D80000128EAD0431CEDD001462846FFF78DFF2D
:100D90000028E7D1666131462846FFF762FBA06173
:100DA000383545442761E5610020D7E70720D5E7BE
:100DB0002DE9F04F002185B00446D0F80080FFF700
:100DC00055FE8146002840F08C804FF0FF334FF0F5
:100DD000FF0AE36257460093A1694046FFF7B3FB61
:100DE000814600287DD1E5692E78002E7DD0EA7AF3
:100DF000E52E02F03F03A37103D0100704D50F2B9B
:100E000004D0009BE36252E00F2B57D194F82B30B3
:100E1000590642D4720648D5236995F80DA0E362BD
:100E200006F0BF066B7B534541D1EA7EAB7E53EAA9
:100E300002233CD12F78D8F80CB007F03F077B1E77
:100E40000D275F432A4B012113F8012BA81815F831
:100E50000290407849EA002959B37F2F039326D89E
:100E6000484600F0B9FD7A1C02903BF81700019249
:100E700000F0B2FD0299814219D1019A039B4946C3
:100E800017461C4A9A42DFD12B785B0603D511B175
:100E90003BF817305BB9013EF7B200212046FFF75F
:100EA00032FF8146002897D01BE0B742BAD0FF2717
:100EB000F3E74FF6FF729145E3D0F8E727B92846EC
:100EC000FFF7DAFA50450CD094F82B9019F001098D
:100ED00097D10B2204F120012846FFF7B4FA00282D
:100EE0008FD1484605B0BDE8F08F4FF00409F8E710
:100EF00044BC000051BC00002DE9F04F85B00368F0
:100F0000019306468A4611F8013B2F2BFAD05C2B41
:100F1000F8D00021B1609AF800301F2B00F2CD808C
:100F20008023304686F82B3005B0BDE8F04FFFF740
:100F30009DBD7F2807D8924A12F8013B1BB1984209
:100F4000FAD106204EE0802DFBD02BF8150001359C
:100F5000B7E033F8022D202A02D02E2A40F0D480A8
:100F6000013DCEE00246D7E0C84505D2AB4249D1AB
:100F7000B9F10B0F3ED102E0B9F10B0F35D144F0BE
:100F800003044FF00B0996F82030E52B04BF05232E
:100F900086F82030B9F1080F04BFBF00FFB207F098
:100FA0000C030C2B03D007F00303032B01D144F0F7
:100FB0000204A50707D4F80748BF44F010047907D6
:100FC00048BF44F0080486F82B403046FFF7F0FE97
:100FD00096F82B3000285FD0042803D113F0040FBB
:100FE00008BF052005B0BDE8F08FAB4202D044F049
:100FF0000304C8D8BF00FFB22B464FF00B094FF0D7
:101000000808B9E07F2812D944F0020240F2B51175
:101010000393029200F0ACFC10F0800FDDE9022394
:101020000FD000F07F005749085C144628B156499C
:1010300011F8012BF2B18242FAD144F003045F208F
:1010400011E0FF28F1D909F1FF31884503D344F0BD
:101050000304C84690E006EB0801040A81F820402A
:1010600008F10108144606EB080208F1010882F8AD
:10107000200081E0A0F1410292B2192A02D847F083
:101080000207F0E7A0F1610292B2192A9EBF203850
:1010900047F0010780B2E6E75A07A3D4B379DB062D
:1010A0006CD5019B03F138013369C3F3080319447C
:1010B000019B1878FFF70DFAB0603368D3F80CB0D5
:1010C00000251AF8010B68B140F2B51100F070FC70
:1010D00000283FF436AF1F2804D92F2802D05C28FF
:1010E0007FF427AF524613782F2B924602F101026C
:1010F000F9D05C2BF7D0202834BF042400240BEB5C
:101100004503002D7FF425AF00220BEB45032BF8A0
:101110001520002D3FF415AF3BF81210202902F1E5
:1011200001003FF41FAF0AB92E2901D144F0030496
:1011300033F8021D2E2901D0013DF9D106F120031B
:1011400006F12B01202003F8010B9942FBD14FF04F
:1011500000084FF0080947463BF81200531C0028CE
:101160003FF411AF202805D02E287FF4FDAEAB420E
:101170003FF4FEAE44F003041A46EDE7052031E7E4
:101180005BBC0000C4BB000064BC000070B5C37849
:101190000446002B45D12378032B39D12379012B29
:1011A00036D104F1380604F50E723346002503F8F3
:1011B000015B9342FBD1552384F83632AA2384F88D
:1011C000373252234122722184F8383084F8393082
:1011D000612384F83A3084F83B2084F81E2284F896
:1011E0001F3284F81C1284F81D1204F50870A169DE
:1011F000FFF721F9616904F50970FFF71CF9626ACC
:101200006078013262630123314600F052FC25719F
:1012100000221146607800F060FC003018BF012009
:1012200003E0FFF770F90028B5D070BD2DE9F04F4D
:1012300090F82B4014F0A00489B0054640F08F8050
:101240000668F26832F81430002B66D105F12007E9
:101250000C22394605A8FFF733F99DF81F30DB074C
:1012600040F186804023DFF8448285F82B304FF030
:10127000010A0B2205A93846D6F80C90FFF720F991
:10128000BAF1050F5AD9A9F10201534631F8022FDC
:10129000002A44D10DF11300072203F00F0C0CF1CA
:1012A0003001392988BF0CF137010F2B00F80119E3
:1012B00002F1FF324FEA131142D808AB13447E21EA
:1012C00003F8141C05F11F0108460023934206D0C1
:1012D00010F801CFBCF1200F03F1010E32D1072A23
:1012E0009CBF08A8801803F1010396BF10F8140CE6
:1012F00020200132072BC854F1D92846FFF758FDAA
:10130000814678BB0AF1010ABAF1640FB1D14FF0FE
:101310000709484609B0BDE8F08F013492E7102074
:1013200002F0010C0CEB430313F4803F18BF83EA77
:10133000080301384FEA5202F2D1A7E75346A9E762
:101340000B46AAE77346C1E7804601212846FFF70E
:10135000DAFC814610B3B9F1040FD8D0D9E74FF0C9
:101360000609D6E70428D4D19DF81F3085F82B3024
:101370009DF81F30D5F800A09B0748BF0C344FF0F4
:101380000001284649BF0D230124B4FBF3F40134C6
:10139000FFF76CFB81460028DDD18046A9695046E5
:1013A000FFF7D1F881460028D5D1EB691B78E52BF2
:1013B00001D0002BC8D108F101084445C5D1013C3A
:1013C00055D029692846A1EB4411FFF74FFB814610
:1013D00000289ED13846FFF74FF84FF6FF7801906E
:1013E000A9693046FFF7AFF88146002891D1EB6933
:1013F000019AD6F80CE05A73E1B24FF00F024FF0A9
:101400000D0CDA72DFF8A8A018734A1E0CFB02F26A
:101410009876D876844640451AF8019B18BF3EF866
:10142000120003F8090003EB090B0CF1010C18BFC3
:1014300001324FEA1029002808BF4046BCF10D0FC9
:101440008BF80190E7D1404502D03EF812200AB94E
:1014500041F0400119700123F37000212846FFF785
:1014600052FC814600287FF454AF013CB8D1A969F1
:101470003046FFF768F8814600287FF44AAFEB69F1
:10148000014603F1200203F8011B9342FBD10B221A
:101490003946E869FFF714F895F82B30EA6903F04C
:1014A000180313730123F37033E700BF2110010009
:1014B00044BC0000F0B585B0CDE9001003A8144687
:1014C0000391FEF7E8FF051E28DB154F57F825604E
:1014D0004EB1306900F039FA18B90224204605B03F
:1014E000F0BD00233370019979B9019B47F825308D
:1014F000002CF3D001A900226846FFF781F80446CA
:1015000001460198FFF79EFBE8E7002301F8103B36
:10151000E8B200F010FA0028E7D1DEE70B24DDE79F
:10152000580300102DE9F041D0B017460191044650
:10153000002800F0DB8002F03F052A4602A901A83E
:10154000FFF75EF8064600284BD1029B01990393F2
:101550000FAADA6003A8FFF7CFFC20B99DF9373056
:10156000002BB8BF062017F01C0F00F09F8000284A
:1015700042D0042835D103A8FFF758FE88BB45F0B8
:101580000805029BDDF8288018784146FEF7A1FF88
:10159000074600F0B4FA014608F10E00FEF74BFFD3
:1015A0000A9B02982022DA720A990022FEF79FFF16
:1015B0000A9B00221A775A779A77DA77029B0121E1
:1015C000D97017B3394603A8D3F83480FFF703FB6B
:1015D00038B941460298FEF7B6FF029B013F5F61B2
:1015E00098B100232360064631460298FFF72AFB94
:1015F000304650B0BDE8F0819DF8123013F0110F65
:101600005ED178076CD43907BBD4DDF808800A9F17
:10161000D8F834302362676298F800002907394609
:1016200048BF45F04005FEF754FFA06007F11C00DD
:10163000FEF7F9FEB8F80630A38004F1280700236E
:10164000E060C4F8008025746374E361636104F5AD
:101650000A713A4602F8013B9142FBD1AA06C3D572
:10166000E568002DC0D0B8F80A80A16865614FEA2E
:101670004828A84526D30020A1610028B1D1C5F390
:101680000803002BB0D0DDF808804046FEF7E9FEE5
:1016900050B300EB5522E2610123394698F801006E
:1016A00000F0F3F900289FD001209AE7002898D194
:1016B0009DF81230DA0615D4BF07A6D5D807A4D5F1
:1016C00007208EE72068FFF777F901280146A5EB90
:1016D000080503D9431CCCD10120CDE70220CBE77C
:1016E00008207EE704207CE702207AE709267FE7CE
:1016F0002DE9F04F9B4685B000238946CBF800309A
:1017000003A904461646FFF7A8FA054608B9657C02
:1017100025B129460398FFF795FA08E0257C15F0D6
:10172000010508D107210398FFF78CFA0725284601
:1017300005B0BDE8F08FE3686769DF1BB74204F1CD
:10174000280328BF374600932FB939460398FFF77F
:1017500079FA3D46EBE76269C2F30803002B76D1C4
:10176000039B5B89013B13EA522313D12AB9A0687A
:10177000012809D802256574CBE7A1692068019387
:10178000FFF71AF9019BF3E7421C02D101216174B2
:10179000C0E7A061DDF80CA0A16901935046FEF7F7
:1017A00060FE019B20B90225657429465046B2E7C8
:1017B000B7F5007F03EB00082BD37E0ABAF80A20A6
:1017C0009AF801009919914288BFD61A33464246C9
:1017D000494600F05AF90028D8D194F91030002B6E
:1017E0000BDAE069A0EB0800B04206D24FF40072B9
:1017F000009909EB4020FEF763FE7602DBF800302B
:101800003344CBF800306369BF1BB1441E446661AA
:101810009AE7E269424518D094F91030002B0BDAB0
:10182000012300999AF8010000F043F90028ADD196
:10183000237C03F07F0323740398009940780123ED
:10184000424600F022F90028A0D1C4F81C8061694A
:10185000009BC1F30801C1F50076BE4228BF3E4699
:10186000324619444846FEF72BFEC7E7F7B501A9F3
:101870000446FFF7F2F90546002843D1237C13F014
:1018800040053FD01B0614D50198E269407801233A
:1018900004F1280100F00DF938B101210198FFF79A
:1018A000D1F90125284603B0F0BD237C03F07F0366
:1018B000237400F024F9216A07460198FEF743FEDD
:1018C0000546F8B9666AF37A43F02003F372A2681A
:1018D00020683146FEF70BFEE16806F11C00FEF7BA
:1018E000AAFD394606F11600FEF7A5FD0198B5746C
:1018F0000123F574C370FFF749FC237C23F04003F8
:101900000546237429460198FFF79CF9CAE737B5C5
:101910000546FFF7ABFF044650B901A92846FFF77B
:101920009CF9044620B9286001460198FFF78AF91E
:10193000204603B030BD10B501200C4601F041FF38
:101940002060003018BF012010BD08B502F0BAF9C0
:10195000012008BD08B540F6B83102F093F8431EE7
:101960005842584108BD00231A46194601F066BE88
:101970007F2810B501D880B210BDB0F5803F13D2DA
:1019800040F2B51399420FD10849002231F8024BB9
:10199000844293B203D103F18000C0B2ECE701327C
:1019A000802AF3D11346F6E70020E5E71ABF0000CE
:1019B0007F280DD940F2B513994208D1FF2806D8E7
:1019C00000F10040034B803833F8100070470020CE
:1019D000704700BF1ABF0000B0F5803FF0B521D2BC
:1019E0001E4A1F4983B2B0F5805F28BF0A46141D06
:1019F00034F8042C2146A2B1934212D334F8025C8D
:101A00002E0AEDB2AF18B84222DA082E09D8DFE864
:101A100006F0050A10121416181A1C00801A34F861
:101A200010301846F0BD981A00F001001B1A9BB246
:101A3000F7E7103BFBE7203BF9E7303BF7E71A3BC2
:101A4000F5E70833F3E7503BF1E7A3F5E353EEE79F
:101A50000434002ECCD101EB4502C8E76CBC000079
:101A60005EBE000010B5044600F0F8FE34B900F088
:101A70000FF9044600F00CFF204610BD0424F9E7DE
:101A800008B900F0A3B904207047F8B507460C4622
:101A900015461E4600F0E2FE4FB92046F2B2294636
:101AA00000F09CF9044600F0F3FE2046F8BD042443
:101AB000F9E7F8B507460C4615461E4600F0CEFE7F
:101AC0004FB92046F2B2294600F0CEF9044600F0A4
:101AD000DFFE2046F8BD0424F9E770B506460C4643
:101AE000154600F0BBFE46B92046294600F010FA24
:101AF000044600F0CDFE204670BD0424F9E7002026
:101B0000704738B500F014FF00F5FA75FF2003F0B8
:101B1000EBFBFF2003F0E8FBFF28044603D000F0B6
:101B200007FF8542F5D8204638BDFFFF08B502F013
:101B300093FEFFF7E6FF02F097FE034A137843F0A7
:101B40000103137008BD00BF0800001038B505463A
:101B50000C46FFF7D6FFFF2821D1204603F0C4FB37
:101B6000FD2C1ED0AC1C05F2022514F8020C03F06B
:101B7000BBFB023414F8030C03F0B6FBAC42F4D107
:101B8000FF2003F0B1FBFF2003F0AEFBFF2003F0CA
:101B9000ABFB00F01F00431F5842584138BD0020E6
:101BA000FCE70120FAE737B5020604460D4607D5E3
:101BB00000217720FFF7F7FF012831D804F07F04D8
:101BC00002F052FE02F048FEFFF79BFFFF282BD1E8
:101BD000402C27D0482C0CBF872301232A0E8DF8D8
:101BE00001202A0C8DF8022006212A0A68468DF869
:101BF00000408DF803208DF804508DF8053003F077
:101C00007DFB4C2C02D1FF2003F06EFB0A24FF2049
:101C100003F06AFB030603D5013C14F0FF04F6D180
:101C200003B030BD9523D9E7FF20F9E770B505462D
:101C300000F07EFE00F16406FF2003F055FB044631
:101C400000F076FE864201D3FF2CF5D0FE2C0CD19D
:101C50004FF40071284603F054FBFF2003F044FBCF
:101C6000FF2003F041FB012070BD0020FCE7FFFFD7
:101C700038B5064D2C78E4B202F0FEFD18B104F040
:101C8000FD042C7038BD44F00304FAE7080000108E
:101C90002DE9F341FFF7ECFF4A4B1A7812F0020FDF
:101CA0001E4604D01878C0B202B0BDE8F081C8204A
:101CB00003F0E2FA0A25FF20013D03F015FB15F0C1
:101CC000FF05F8D102F0C8FD29464020FFF76BFF61
:101CD0000128044671D100F02BFE4FF4D57100F5B8
:101CE0007A774820FFF75FFF012848D101ADA84669
:101CF0000424FF2003F0F8FA013C14F0FF0408F874
:101D0000010BF6D19DF80630012B56D19DF8073016
:101D1000AA2B52D100F00CFE874206D94FF0804129
:101D2000E920FFF740FF0028F4D100F001FE8742D0
:101D300043D900217A20FFF736FF00283DD1042443
:101D4000FF2003F0D1FA013C14F0FF0405F8010B69
:101D5000F6D19DF8043013F0400F14BF0C24042476
:101D6000194B1C7002F080FD4CB3337845F6C0501F
:101D700003F0FE03337003F07FFA307893E72946CF
:101D8000E920FFF710FF022836BFE925412502248C
:101D900000F0CEFD874205D900212846FFF703FF5A
:101DA0000028F5D100F0C4FD874206D84FF4007139
:101DB0005020FFF7F8FE0028D2D00024D0E7FFF72C
:101DC000B5FEDAE7080000105E03001008B5FFF763
:101DD0004FFF014B187808BD0800001070B514467D
:101DE00005460E46FFF744FF002C35D01C4B1B78F0
:101DF000DA0733D402F030FD1A4B1B781B0758BFAB
:101E00007602012C314611D15120FFF7CCFE38B9B2
:101E10004FF400712846FFF709FFB0FA80F4640917
:101E200002F022FD201C18BF012070BD5220FFF7D8
:101E3000BAFE0028F4D14FF400712846FFF7F6FEF1
:101E400028B1013C14F0FF0405F50075F3D1002121
:101E50004C20FFF7A8FEE3E70420E6E70320E4E7D1
:101E6000080000105E03001070B5144605460E46CB
:101E7000FFF7FEFE002C41D0234B1A78D0073FD449
:101E80001B7859073ED402F0E7FC204B1B781A0759
:101E900058BF7602012C11D131465820FFF783FE3E
:101EA00050BBFE212846FFF751FEB0FA80F46409CA
:101EB00002F0DAFC201C18BF012070BD13F0060FE1
:101EC00003D02146D720FFF76EFE31465920FFF799
:101ED0006AFE0028ECD1FC212846FFF737FE28B126
:101EE000013C14F0FF0405F50075F4D1FD2100203C
:101EF000FFF72CFE0028DBD10124D9E70420DCE722
:101F00000320DAE70220D8E7080000105E03001083
:101F10007FB506460D46FFF7ABFE052E15D12C7892
:101F2000012C10D02CB1022C0AD00424204604B07D
:101F300070BD02F0A1FC0028F8D0FFF7F7FDF5E72F
:101F400002F09AFC68700024F0E76F4B1C7814F0E4
:101F5000010440F0D7800E2E00F2D280DFE806F0B8
:101F600008134E52D0D0D0D0D0D09DA1B0B3C40071
:101F700002F072FCFFF7C5FDB0F1FF0418BF0124A9
:101F800002F072FCD2E700214920FFF70CFE044664
:101F900008B10124F4E710216846FFF747FE002846
:101FA000F7D09DF800309DF808109B09012B9DF893
:101FB000093006D15A1C02EB012292B292022A6029
:101FC000DEE79DF807209DF80A00920002EB9112CF
:101FD0009DF80610890201F4406101320A449DF81F
:101FE00005105B0001F00F0101EBD01103F00603B7
:101FF0000B44073B02FA03F32B60C1E74FF4007375
:102000002B80BDE7414E317811F004011CD0002136
:10201000CD20FFF7C8FD0028BBD1FF2003F064F9F5
:1020200010216846FFF702FE0028B2D03024FF20BE
:10203000013C03F059F914F0FF04F8D19DF80A307F
:102040001A0910239340D7E74920FFF7ACFD044657
:1020500000289ED110216846FFF7E8FD002898D09F
:1020600032789DF80A309DF80B1092070AD55B0074
:102070009DF80D2003F07E0303EBD1139209013389
:10208000013ADFE7CA0002F01802C3F3840302EB4F
:102090005112013302FB0333AEE71C4B1B782B704C
:1020A0006EE700214920FFF77EFD00287FF471AF25
:1020B00010212846FFF7BAFDB0FA80F464095FE703
:1020C00000214A20EFE700217A20FFF76CFD04464B
:1020D00000287FF45EAF2E1DFF2003F005F905F800
:1020E000010BAE42F8D14BE70021CD20FFF75BFD9D
:1020F00000287FF44EAFFF2003F0F6F84021D8E728
:1021000004243DE7032411E7080000105E030010DB
:1021100008B5064604F0BDFE00240546A54200DCD5
:10212000FEE7315D002003F0D7F90134F6E7FFFF49
:1021300002280CD9074B1B685A68824207D09A685C
:10214000824204D0DB681B1A584258417047012074
:10215000704700BF80010010F8B504460E461546D2
:10216000FFF7E6FF48B3164B1B68DB68A34210D0AD
:10217000A31E5C425C4102F0BDF90746002003F05B
:1021800065F9022F17D1B0B1ACB9A54203DC2846DE
:10219000F8BD0124EFE7315D4FF0FF32002003F07E
:1021A000FDF90134F1E7315D002003F095F90134C8
:1021B000A542F8DCEBE70024FAE70248FFF7A8FFA6
:1021C000800100104CC0000008B5FFF7B1FF18B146
:1021D000002003F0B9F908BD0148FFF799FF00BFDF
:1021E0001AC000002DE9F84F0646144688461046EE
:1021F0001B49DFF87C90DFF87CA0DFF87CB000F0B2
:102200004CFDB36821464046984735680DB9BDE896
:10221000F88F6F68384604F03CFE32288CBF514678
:1022200049463B462A68204600F037FD594620467D
:1022300000F05EFE0B490746204600F059FE07B944
:1022400018B10949204600F092FD0849204600F0E7
:102250008EFDB368214640469847ED68D6E700BF3B
:102260007FC00000C6C0000050C20000C5C0000012
:10227000DBC00000C8C00000E7C0000030B5042982
:102280004FF0000538BF04210560C0E90112C360AA
:1022900030BD11B10368CB60016070472DE9F0419A
:1022A000144605460F461046424900F065FE424975
:1022B000204600F0A2FD002833D03F49204600F020
:1022C0007EFD28B1224639462846FFF78BFF68E09D
:1022D0002021204600F01AFEDFF8F0802E680EB9AB
:1022E0002E6810E042463168204600F09DFD00282F
:1022F00038D1F668F3E76A683168204600F069FD76
:1023000000282FD1F668002EF5D131462B4A204601
:1023100000F003FDAB68214638469847AB68254975
:102320003DE02E68DFF8A4800EB92E680EE042462C
:102330003168204600F078FDB8B9F668F4E76A68BD
:102340003168204600F045FD78B9F668002EF6D1D8
:1023500031461B4A204600F0E0FCAB682146384677
:102360009847AFE7AB687168D6E72021204600F0B8
:10237000CDFDB368AA6821463846984788B1114A0E
:102380000021204600F0C9FCAB682146384698473A
:102390000D497268204600F080FCAB682146384643
:1023A0009847E96821B1AB683846BDE8F041184765
:1023B000BDE8F081C5C00000E9C000001CC10000FC
:1023C00045C10000EEC00000FFC0000054D0000076
:1023D00010B54C1E14F8010F00B910BD04F0AEFB8F
:1023E000F8E7FFFF70B5A0B006461B4A802168469B
:1023F00000F088FC0446304622460021FFF74EFFDD
:10240000204600F039FC204600F030FD0028F2D1D3
:1024100003F008FBC5B2082D16D1204600F019FCC8
:1024200060B10121204600F052FD284604F086FBF1
:10243000202004F083FB284604F080FB204600F0B7
:102440000EFC0028DFD0D6E7284604F077FB2946AB
:10245000204600F0A8FCF1E7E9C0000030B589B0E3
:1024600004AD2846124B134A134C0421FFF706FF14
:1024700095E80F0084E80F0020461049FFF709FF98
:1024800020460F49FFF705FF20460E49FFF701FFE1
:102490000D4B02930D4B0193032300934FF40072F5
:1024A00023460B490B4801F051FD09B030BD00BF78
:1024B00076C10000D1230000600300102C00001042
:1024C0001C0000100C000010700B001070030010B6
:1024D000C9C10000E52300002DE9F043E7B00DF18C
:1024E00098084FF4807281460E464046002103F062
:1024F000E7FA802106A800F089FB05AF01233B60C5
:1025000005460024009704AB03AA20494846CDE9BC
:10251000034400F0CFFB012831D93B6800939DF8BC
:1025200010209DF80C104346022002F01DFC81464D
:10253000E8B1039A1649DFF86490284600F0ADFB35
:1025400029462046B0473B68A34202D867B0BDE8A1
:10255000F083049A18F80430009322444946284630
:1025600000F09BFB29460020B0470134EBE7094906
:10257000284600F0B0FB29464846B047E6E7064942
:10258000284600F0A8FB29462046F6E7E0C20000F6
:10259000EDC200001EC300004BC3000007C30000D3
:1025A0002DE9F043E7B000240DF198084FF4807254
:1025B00081460F4640462146CDE9034403F080FAA8
:1025C000802106A800F022FB04AB064603AA294995
:1025D000484600F06FFB022844D12021484600F015
:1025E00095FC2021484600F091FC059405A9484639
:1025F00000F09AFC0546D0B9009443469DF810209F
:102600009DF80C10022002F0E9FB814610B3039BF9
:102610001949DFF870902246304600F03EFB314603
:102620002846B847AC4207D167B0BDE8F083059BA8
:1026300008F804300134D9E7049A18F805300093FB
:102640002A444946304600F028FB31460020B8476E
:102650000135E7E70949304600F03DFB3146484681
:10266000B847E1E70649304600F035FB31462046E1
:10267000F6E700BF8BC3000095C30000CCC3000089
:10268000FAC30000B5C30000F8B50D4628460E4950
:10269000164600F0B2FB0D490446284600F0ADFB9B
:1026A00020210746284600F031FC2CB1314628464F
:1026B000FFF712FF0020F8BD27B131462846FFF78B
:1026C0006FFFF7E70120F6E7D5C20000DAC200008D
:1026D0000123024A1A600020704700BFEFBEADDE42
:1026E00008B502499047002008BD00BF4CC4000057
:1026F000F8B504460D4600F005F9061941EB05074B
:1027000001F0F8FE02280CD100234FF47A72AB429C
:1027100008BFA24205D22046294602F07DFF01F003
:10272000C3FD00F0EFF8B94208BFB042F9D3F8BDDD
:102730004FF47A73A0FB0301FFF7DABF30B585B021
:1027400002F008F802F0A2F88DF80C0002F0A4F8EC
:102750008DF80D0002F0A6F88DF80E0002F0A8F832
:1027600000248DF80F0004AA04F00303134401347D
:1027700013F8040C02F068F93220FFF7D9FF202C7F
:10278000F1D1284B1868002319460222406804F052
:102790006FFAFDF747FD002501464FF4E1320020B6
:1027A00002F014FE0095204B204A0121204600F043
:1027B000DBFE1F4B009504461E4A0121802000F0DD
:1027C000D3FE22460146284602F04AFE4FF4FA5054
:1027D00002F068FD012218491848FEF76BFE184AFE
:1027E000184B1949A84208BF1346184A1848194DF2
:1027F00004F08CF9FDF716FD17490246022002F09D
:102800005BFA0224E1B2022002F010FB18B121466B
:10281000284604F07BF90234B4F5807FF2D105B08C
:1028200030BD00BF80010010E40B0010C40B00108D
:10283000E40E0010640E0010C7C000002C0C001045
:10284000A6C40000C4C40000EBC4000095C400008E
:102850003CC500005CC50000801A060010B50A4C9B
:10286000236823B90949012000F096FF206001F098
:1028700041FE022806D120684FF0FF31BDE810402C
:1028800001F000B910BD00BF2C0F0010300F001078
:1028900010B501F02FFE022808D1054800231A4682
:1028A00019460068BDE8104000F0C8BE10BD00BF6A
:1028B0002C0F0010074A08B51368002101330846A1
:1028C000136002F01BF900210846BDE8084002F041
:1028D00001B900BF780F001008B5074A0749B0FBDF
:1028E000F1F10020013902F0BFF80021044A084646
:1028F000BDE8084002F0DCB8B528000040420F00F7
:102900000087930370B5084E002002F0EFF80546EB
:102910000020346802F0EAF88542F5D8034B002124
:10292000E3FB040170BD00BF780F00100087930324
:1029300008B5FFF7E7FF4FF47A72002302F06CFE50
:1029400008BD70B5054608460C4604F0A2FA2618E4
:10295000B44205D128460A21BDE8704002F0BCBD52
:1029600014F8011B284602F0B7FDF1E770B5244AC0
:10297000244C10685168127A234DADF58A6D02AB74
:1029800003C300211A700DF11100172203F098F80B
:1029900002A9204604F0BAF8012202A98AA8FEF78B
:1029A000C1FD1A4B1B6810BB02AA1949D868194E01
:1029B00002F0B8FF01AB4FF400720AA98AA8FEF733
:1029C00097FE019B33B9144804F03AF9134804F018
:1029D00037F9DDE700234FF0FF320AA9286800F03D
:1029E0002DFE306801F05CF90028E3D0EEE7D968ED
:1029F0000B4803F00FF88AA8FEF789FFC8E700BF6D
:102A000083C500001EC600007C0F0010800100106E
:102A10003CC60000800F00104EC600005EC60000DD
:102A20006EC600002DE9F043DFF86890DFF868809B
:102A3000ADF5017D00254FF0FF326946D9F8000061
:102A400000F082FF0028F6D04FF4FA5002F02AFC82
:102A5000002402F067FA0028FBD002F05DFA14F1BE
:102A6000210F8CBF012621260DEB0407013E0CD15E
:102A7000203402F04BFAB4F5007FEAD129464046F3
:102A800004F044F805F50075D5E717F8010B02F0DE
:102A90002BFCEBE77C0F001010C6000013B5FFF70E
:102AA000DDFC264804F0CCF800222021012000F0B3
:102AB000A1FD234B002218604FF40071012000F0AB
:102AC00099FD204B186002F0CBFA70BB1E4804F051
:102AD000B7F802F07DFA4FF40841002002F028FA1E
:102AE000032002F04BFA0146184804F00FF84FF4A7
:102AF000FA5002F0D7FB00240123CDE900344FF453
:102B00001D6223461249134801F056FA022300932E
:102B10004FF41D62234610490194104801F04CFA0D
:102B200001F078FA204602B010BD0D4804F088F894
:102B30006421032002F0FCFACBE700BFA3C500002C
:102B4000800F00107C0F0010B1C50000EAC5000026
:102B5000FAC500006D29000005C60000252A000006
:102B6000CBC500000C460020044908B5FFF7E9FE7C
:102B700021460020FFF7E5FEFEE700BFB5C70000D5
:102B800008B502490020FFF7DCFEFEE77BC7000026
:102B9000024B0022C3F8C02030BF704700C00F4076
:102BA00008B50C4600200A49FFF7CBFE0949002072
:102BB000FFF7C7FE08490020FFF7C3FE07490020C2
:102BC000FFF7BFFE21460020FFF7BBFEFEE700BF78
:102BD00083C60000D5C6000018C700004CC700001F
:102BE000034B0360034B0B6064231360704700BF0B
:102BF00020110010900F001008B5FFF783FE024B64
:102C00001B68C01A08BD00BF880F001038B50D46FC
:102C1000044658B103290BD90A46002102F050FF9F
:102C200023462A0A03F8022B65701C46204638BD4D
:102C30000024FBE710F8023C10F8010C40EA0320E6
:102C4000033880B2704708B5FFF7F4FF013080B257
:102C500008BD08B510B104F01CF980B208BD10B56C
:102C60000446FFF7F6FF02462046FFF7E3FF8242E5
:102C700034BF0020012010BD00230370704710B541
:102C80000446FFF7E0FF13460A460146204605F0DA
:102C900005F820EAE07080B210BD0EB403B503AAB7
:102CA00052F8041B0192FFF7EAFF02B05DF804EB53
:102CB00003B070470EB403B503AA52F8041B019287
:102CC00005F01EF80028CCBF80B2002002B05DF8ED
:102CD00004EB03B0704738B505460C46084671B1A1
:102CE00004F0D7F801462846FFF7A4FF89B28142D5
:102CF000024605D82146284604F008F9012038BDCF
:102D00000020FCE738B51546FFF780FF044610B1F8
:102D10002946FFF7E0FF204638BD2DE9F041054682
:102D20000F4614460AB3FFF794FFB84206461CD379
:102D3000204604F0AEF832188046284692B2FFF7DB
:102D400079FF824211D8C7F101023D44324492B268
:102D5000294605EB080002F099FE42462146284626
:102D600004F0D4F80120BDE8F0810020FBE770B545
:102D700006460C46A9B1FFF76CFF0546204604F055
:102D800088F882B2A918304689B2FFF753FF88420B
:102D900007D3013292B22146701902F069FE012078
:102DA00070BD0020FCE707B500238DF8041001A9D1
:102DB0008DF80530FFF7DBFF03B05DF804FB08B5C5
:102DC00029B104F03DF8B0FA80F0400908BD08468A
:102DD000FCE770B5064615460C4661B1FFF739FFB2
:102DE000A84208D32A462146304604F07DF8B0FABE
:102DF00080F0400970BD0020FCE770B505460C4628
:102E000081B1FFF726FF0646204604F042F88642CD
:102E1000024607D32146284604F044F8B0FA80F071
:102E2000400970BD0020FCE72DE9F041074614463B
:102E30000D46C9B1C2B1FFF70CFF8046284604F029
:102E400028F8804506460FD302462946384604F046
:102E50004BF848B9B85D237883421ABFB0FA80F0C6
:102E600040090120BDE8F0810020FBE710B50446D1
:102E7000FFF7EFFE40B1013880B2205C0D2804D08E
:102E8000A0F10A035842584110BD0120FCE770B57B
:102E90000C4605461646FFF7DCFEA04211D9011B81
:102EA000B142C4F101030A461844A8BF3246801A51
:102EB00014FA82F1294482B2281902F0E7FD0120B8
:102EC00070BD0020FCE70A460021FFF7E0BF38B5DF
:102ED0000C460546FFF7BDFEA04224BF001B81B291
:102EE0002246284638BF0021BDE83840FFF7CFBF53
:102EF00010B5044604F01DF8031E1FBF1B1B9BB238
:102F0000002201200CBF0020E25410BD10B5044681
:102F100003F0B2FF38B1011B0131204689B2BDE890
:102F20001040FFF7D0BF10BD70B5064605461148EA
:102F30000C462B4613F8011BC9B10A5C520714D585
:102F400024B1284602F0EAFC20600124094A2946FF
:102F500015F8013B13B19B5C5B07F8D4891B89B260
:102F60003046FFF7B0FF204670BD1D46E1E70C4636
:102F7000ECE700BF49CF0000F8B506460C46C9B1E2
:102F8000FFF767FE0546204603F083FF6B1E3344C0
:102F90002044013E0021B34202D02246824201D1A8
:102FA000012008E012F8015B1F78AF42F6D103F868
:102FB0000119F0E70846F8BD00F05AB800F0A0B8D3
:102FC00000F0D0B808480068006880F308884FF027
:102FD000000080F3148862B661B6BFF34F8FBFF371
:102FE0006F8F00DF00BF000008ED00E0DFF80C008D
:102FF000016841F4700101607047000088ED00E055
:1030000007B5002301930B4B1B68013304D00A4919
:10301000EF20FFF7C5FDFEE74FF0180383F311889B
:10302000BFF36F8FBFF34F8F019B002BFCD003B01A
:103030005DF804FB7C110010D2C700004FF08073D4
:1030400040F8043C074B40F80C3C21F001016FF0C4
:10305000020340F8081C40F8202C40F8243C443877
:10306000704700BF01300000FFFFFFFFFFFFFFFFC1
:10307000074B19680868B0E8F04F80F30988BFF380
:103080006F8F4FF0000080F311887047AFF300801E
:103090008011001008B54FF0180383F31188BFF3B7
:1030A0006F8FBFF34F8F094A13680133012B1360F1
:1030B0000AD1074B1B6813F0FF0F05D0054940F2FA
:1030C000AB10FFF76DFDFEE708BD00BF7C110010DF
:1030D00004ED00E0ECC70000074A08B513682BB9FF
:1030E00006494FF4D970FFF75BFDFEE7013B136023
:1030F0000BB983F3118808BD7C11001021C80000B2
:10310000EFF30980BFF36F8F154B1A681EF0100F95
:1031100008BF20ED108A20E9F04F10602DE909006A
:103120004FF0180080F31188BFF34F8FBFF36F8FFC
:1031300001F0DEF84FF0000080F3118809BC196837
:103140000868B0E8F04F1EF0100F08BFB0EC108A0E
:1031500080F30988BFF36F8F704700BFAFF3008023
:103160008011001008B54FF0180383F31188BFF3E6
:103170006F8FBFF34F8F00F08FFF18B1034B4FF0ED
:1031800080521A60002383F3118808BD04ED00E02B
:1031900010B5084A084C002323601360FDF73EF881
:1031A0004FF47A73B0FBF3F0044B01381860072337
:1031B000236010BD18E000E010E000E014E000E043
:1031C000334B344A13B51968914205D132494FF453
:1031D0009A70FFF7E5FCFEE71A68304B9A4205D17A
:1031E0002F4940F23510FFF7DBFCFEE72D4B1A7834
:1031F000D2B20192FF221A701B782B4ADBB28DF8F3
:1032000003309DF8033003F018031370274A072397
:10321000136000219DF80300000603F1FF3409D478
:1032200011B1022B13600ED0214940F25D10FFF75F
:10323000B7FCFEE79DF803305B00DBB28DF803308E
:1032400001212346E6E74FF400731360019B154A02
:10325000DBB21370174B1A6842F478021A601A68CE
:1032600042F078421A60FFF793FF134B00241C6072
:10327000FFF7BCFE114A136843F040431360FFF7A9
:10328000A1FE01F035F8FFF7BBFE204602B010BDED
:1032900000ED00E071C20F419FC8000070C20F41F5
:1032A000C2C8000000E400E07411001078110010A2
:1032B000E5C8000020ED00E07C11001034EF00E0D4
:1032C00008B5EFF305830F2B0BD90D4A9B5C0D4A14
:1032D00012789A4205D90C4940F2FE20FFF760FCB3
:1032E000FEE70A4B0A4A1B68126803F4E063934244
:1032F00005D9084940F20E30FFF752FCFEE708BD41
:10330000F0E300E07411001033C800000CED00E0A1
:10331000781100105DC8000010B5044600F0B4FE3E
:10332000204602F095FB044600F048FF0CB9FFF779
:1033300027FC204610BD10B5044640B100F0A4FEA5
:10334000204602F08DFBBDE8104000F037BF10BDF5
:1033500000F108034FF0FF324360C0E9022303612C
:1033600000230360704700230361704743684B608C
:103370009A688A609A6851609960036808610133AD
:10338000036070470A68531C30B50AD103695A6854
:103390004A6091608B605960036808610133036083
:1033A00030BD00F108035C6825689542EFD82346DC
:1033B000F9E7D0E9011203698A60516059688142D6
:1033C00008BF5A60002202611A68013A1A60186840
:1033D000704710B50446FFF75DFEA46BFFF77CFE57
:1033E000B4FA84F0400910BDF8B51546026C866B3E
:1033F000044652B9076847BB806801F0DDF8A76052
:1034000005460136A6632846F8BD65B9406802F056
:103410002FFB6368226C1344A26863609342F0D36D
:1034200023686360EDE7C06802F022FB236CE2686A
:1034300021685B421A448A42E2603EBFA2689B1840
:10344000E360022D01D116B1013E0025D9E73546D2
:10345000D7E7034610B41A6C084662B1D9689C6875
:103460001144A142D96024BF1968D960D9685DF8B8
:10347000044B02F0FDBA5DF8044B704770B504468A
:10348000FFF708FE94F8455004F124066DB2002DB4
:1034900014DCFF2384F84530FFF71EFEFFF7FAFD2A
:1034A00094F8445004F110066DB2002D12DCFF2395
:1034B00084F84430BDE87040FFF70EBE636A002B0D
:1034C000E7D0304600F08AFF08B101F00DF8013D69
:1034D0006DB2DCE72369002BE9D0304600F07EFFB7
:1034E00008B101F001F8013D6DB2DEE738B50D46D7
:1034F000044628B91A4940F20310FFF751FBFEE7D2
:10350000FFF7C8FDD4E90F30226862604343D11849
:103510001B1A1344A160E3600021FF23A16384F818
:10352000443084F8453095B9236963B104F1100043
:1035300000F054FF38B10B4B4FF080521A60BFF3CC
:103540004F8FBFF36F8FFFF7C7FD012038BD04F128
:103550001000FFF7FDFE04F12400FFF7F9FEF2E78B
:10356000EBC9000004ED00E013B51C4628B91C4966
:103570004FF49D70FFF714FBFEE72BB919494FF488
:103580009F70FFF70DFBFEE732B161B916494FF4AA
:10359000A170FFF705FBFEE729B1144940F2431083
:1035A000FFF7FEFAFEE748230193019B482B05D065
:1035B0000F4940F24B10FFF7F3FAFEE7002908BF6E
:1035C0002246019B22600123C4E90F0184F84630A2
:1035D00019462046FFF78AFF204602B010BD00BF03
:1035E00028C900004AC9000060C9000098C900004D
:1035F000D0C9000070B50D46064628B90E494FF4F3
:10360000BB70FFF7CDFAFEE748434830FFF784FE72
:10361000044660B1002380F8463055B100F14803FC
:103620002360C4E90F6501212046FFF75FFF2046B4
:1036300070BD0346F4E700BF28C900002DE9FF472D
:10364000884601921F46044628B94E4940F2F120AF
:10365000FFF7A6FAFEE739B9036C2BB14A4940F2ED
:10366000F220FFF79DFAFEE7022F08D1E36B012B52
:1036700005D0464940F2F320FFF792FAFEE700F04A
:1036800039FF064638B9019B33B1414940F2F62073
:10369000FFF786FAFEE700264FF00009DFF8F4A0F6
:1036A00037E0019D1DB9FFF717FD002050E016B966
:1036B00002A800F0D3FEFFF70FFD00F0E5FCFFF7D6
:1036C000E9FC94F84430FF2B08BF84F8449094F848
:1036D0004530FF2B08BF84F84590FFF7FDFC01A99A
:1036E00002A800F0C7FE002846D1FFF7D3FCA26B6A
:1036F000E36B9A422FD1FFF7EFFC019904F1100020
:1037000000F054FE2046FFF7B9FE00F057FD50B31D
:103710000126FFF7BFFCA26BE36B9A4201D3022F95
:10372000BFD13A4641462046FFF75EFE636A1BB1B1
:1037300004F1240000F052FE38B1164B4FF08052D5
:103740001A60BFF34F8FBFF36F8FFFF7C5FC0120E7
:1037500004B0BDE8F087FFF7BFFC2046FFF78EFE00
:1037600000F02CFDD4E74FF08053CAF80030BFF3CF
:103770004F8FBFF36F8FCBE72046FFF77FFE00F040
:103780001DFD92E7EBC90000F3C9000043CA000029
:103790008ACA000004ED00E013B5002200900B4639
:1037A00001201146FFF7E0FE044638B10023836094
:1037B0000360C3601A461946FFF740FF204602B077
:1037C00010BD10B5024600210120FFF713FF04468B
:1037D00038B1002383600360C3601A461946FFF7BF
:1037E0002DFF204610BDFFFF2DE9F8438946904686
:1037F0001F46044628B9284940F2C330FFF7D0F9E4
:10380000FEE739B9036C2BB124494FF47170FFF70F
:10381000C7F9FEE7022F08D1E36B012B05D0204941
:1038200040F2C530FFF7BCF9FEE7FFF749FDEFF3C3
:1038300011864FF0180383F31188BFF36F8FBFF326
:103840004F8FA26BE36B9A4201D3022F22D194F8DF
:1038500045503A466DB249462046FFF7C5FD6B1C00
:1038600013D1636A0BB901200BE004F1240000F0CE
:10387000B5FD0028F7D0B8F1000FF4D00120C8F84A
:10388000000086F31188BDE8F88301356DB284F835
:103890004550E8E70020F4E7EBC90000F3C9000059
:1038A00043CA000070B50D46044628B923494FF4B9
:1038B0008C60FFF775F9FEE7036C2BB1204940F2ED
:1038C0006440FFF76DF9FEE703683BB983682BB1ED
:1038D0001C4940F26940FFF763F9FEE7FFF7F0FC8F
:1038E000EFF311864FF0180383F31188BFF36F8F46
:1038F000BFF34F8FA26BE36B93421CD994F8453012
:1039000001325BB2A2635A1C10D1636A0BB9012069
:1039100009E004F1240000F061FD0028F7D0002D3B
:10392000F5D00120286086F3118870BD01335BB2A9
:1039300084F84530EBE70020F5E700BFEBC9000055
:10394000E0CA0000F9CA00002DE9F04385B00F4637
:103950000192044628B947494FF4A060FFF720F9C7
:10396000FEE739B9036C2BB1434940F20450FFF72D
:1039700017F9FEE700F0BEFD064638B9019B33B1EA
:103980003E4940F20950FFF70BF9FEE700264FF0E1
:103990000008DFF8EC903BE0019D1DB9FFF79CFBB0
:1039A000002052E016B902A800F058FDFFF794FB82
:1039B00000F06AFBFFF76EFB94F84430FF2B08BF62
:1039C00084F8448094F84530FF2B08BF84F8458084
:1039D000FFF782FB01A902A800F04CFD00283DD1B1
:1039E0002046FFF7F6FC98B3019904F1240000F09B
:1039F000DDFC2046FFF742FD00F0E0FB38B94FF058
:103A00008053C9F80030BFF34F8FBFF36F8F01268B
:103A1000FFF740FBA56B002DBED039462046013D87
:103A2000FFF717FDA563236963B104F1100000F0EF
:103A3000D5FC38B1124B4FF080521A60BFF34F8F54
:103A4000BFF36F8FFFF748FB012005B0BDE8F0839F
:103A50002046FFF713FD00F0B1FBD8E72046FFF743
:103A60000DFD00F0ABFB2046FFF7B3FC0028CED0E5
:103A700096E700BF60CB00006CCB00008ACA000054
:103A800004ED00E02DE9FF410446019128B95849B1
:103A900040F29150FFF784F8FEE7056C2DB15549CF
:103AA00040F29550FFF77CF8FEE700F023FD064654
:103AB00038B9019B53B1504940F29A50FFF770F862
:103AC000FEE72E460027DFF838814EE00546F9E78D
:103AD000019B4BB92DB1494940F2E150FFF760F825
:103AE000FEE7FFF7F9FA5EE016B902A800F0B6FCAF
:103AF000FFF7F2FA00F0C8FAFFF7CCFA94F8443076
:103B0000FF2B08BF84F8447094F84530FF2B08BFA2
:103B100084F84570FFF7E0FA01A902A800F0AAFCBA
:103B200000284AD12046FFF754FC00283FD02368E4
:103B30003BB9FFF7AFFAA06800F0ECFC0546FFF7D1
:103B4000CBFA019904F1240000F030FC2046FFF785
:103B500095FC00F033FB38B94FF08053C8F80030C3
:103B6000BFF34F8FBFF36F8F0126FFF793FAA36B5D
:103B7000002BADD0013BA363236813B900F0C2FD55
:103B8000A060236963B104F1100000F027FC38B194
:103B90001B4B4FF080521A60BFF34F8FBFF36F8FF4
:103BA000FFF79AFA0125284604B0BDE8F0812046C7
:103BB000FFF764FC00F002FBD6E72046FFF75EFC4F
:103BC00000F0FCFA2046FFF704FC0028CCD0002DC2
:103BD000E9D0FFF75FFA616A19B1236B1968C1F187
:103BE0000A01A06800F036FD0025FFF775FADAE754
:103BF00060CB0000E0CA00008ACA00000ACC0000C6
:103C000004ED00E02DE9F84389469046054628B9C1
:103C1000214940F2FB60FEF7C3FFFEE739B9036CB0
:103C20002BB11E4940F2FC60FEF7BAFFFEE7FFF73A
:103C300047FBEFF311874FF0180383F31188BFF3AD
:103C40006F8FBFF34F8FAC6B1CB395F84460494640
:103C500076B22846FFF7FDFB013C731CAC6313D121
:103C60002B690BB901200BE005F1100000F0B6FB49
:103C70000028F7D0B8F1000FF4D00120C8F80000F8
:103C800087F31188BDE8F883013676B285F8446081
:103C9000E8E72046F4E700BFEBC90000BFCB000017
:103CA00010B5044628B9064940F28A70FEF778FF3D
:103CB000FEE7FFF7EFF9A46BFFF70EFA204610BD01
:103CC000ECC9000008B528B9064940F2B770FEF704
:103CD00067FFFEE790F846301BB9BDE80840FFF7E4
:103CE0002ABB08BDEBC900002DE9F0410546FFF7EE
:103CF000D1F92D4B2D4C1A682D4F01321A602668D0
:103D0000002E45D125601B68012B1CD1B8464046CA
:103D10000136FFF71DFB0A2E08F11408F7D1DFF872
:103D2000B880244E4046FFF713FB3046FFF710FBE8
:103D30002148FFF70DFB2148FFF70AFB204BC3F892
:103D40000080204B1E60204A204913680868013318
:103D50001360EA6A01239340034314200B6000FBC5
:103D60000270291DFFF702FBFFF7B6F9184B1B681D
:103D700063B12368DA6AEB6A9A4207D2154B4FF0B7
:103D800080521A60BFF34F8FBFF36F8FBDE8F08191
:103D90000F4B1B68002BD6D12368DA6AEB6A9A4274
:103DA00098BF2560CFE700BF5812001080110010A7
:103DB0008C11001080120010A0120010B812001018
:103DC0008411001088110010641200106812001095
:103DD000B412001004ED00E06C12001008B5074C9E
:103DE000074D4FF080562368012B04D92E60BFF396
:103DF0004F8FBFF36F8FFEF7CBFEF4E78C110010EF
:103E000004ED00E0064A13681968064B19B94FF033
:103E1000FF321A6070471268D268D2685268F8E7B9
:103E200084110010981200102DE9F047DDE90964B3
:103E30004FEA82094A4607460D46206BA52198465F
:103E400001F03EFE236BA9F10409994429F007090A
:103E50009DB36B1E04F134020B3513F8011F02F8F9
:103E6000011B09B1AB42F8D1002384F83F30089D13
:103E7000092D28BF09254FF0000AE5622564201DA1
:103E8000C4F844A0FFF76FFAC5F10A0504F1180061
:103E9000FFF769FAC4F84CA02461A5616462C4F814
:103EA00048A084F850A0424639464846FFF7C6F875
:103EB000206006B13460BDE8F08784F83450D6E75E
:103EC000F8B51B4B1B4E1C680546306804300F4686
:103ED000FFF76FFA334640B93168174EC96A326846
:103EE0000120884022EA000232606A1C07D137B103
:103EF000196812480431BDE8F840FFF737BA1A686C
:103F00006419546007D30E4A10681968BDE8F84078
:103F10000431FFF737BA0B4A106819680431FFF70C
:103F200031FA094B1A68A24288BF1C60F8BD00BF75
:103F3000CC1200108011001068120010B81200108E
:103F400088110010841100109812001070B586B00E
:103F5000DDE90B542DB9154940F24D20FEF720FE46
:103F6000FEE72CB9124940F24E20FEF719FEFEE79B
:103F700054260596059E542E05D00E4940F2562033
:103F8000FEF70EFEFEE72563022584F8515004ADCE
:103F900001950A9D02940095059EFFF745FF204676
:103FA000FFF7A2FE049806B070BD00BFF5CC00007C
:103FB0000CCD000021CD00002DE9F043074685B06F
:103FC0009000884616469946FFF7A6F90546E8B1DF
:103FD0005420FFF7A1F90446A8B1002380F851301E
:103FE0000D9B056301930C9B0290009332464B4658
:103FF00041463846FFF718FF2046FFF775FE0120BF
:1040000005B0BDE8F0832846FFF795F94FF0FF3083
:10401000F6E7FFFF10B588B0002407AA06A905A897
:10402000CDE90544FEF7DCFD059B0293069B079A4C
:104030000F491048CDE900432346FFF787FF0E4B99
:10404000186090B14FF0180383F31188BFF36F8F9E
:10405000BFF34F8F094B4FF0FF321A60084B01221C
:104060001A60084B1C60FFF7ABF808B010BD00BF2A
:104070009BCC0000DD3D000094120010981200104F
:10408000B4120010CC120010024A136801331360FE
:10409000704700BF601200102DE9F84F3B4B1B68C2
:1040A000002B6BD13A4B1C6801341C60A4B9394B0E
:1040B0001A6812682AB1384940F67F20FEF770FD71
:1040C000FEE7364A1968106818601160344A1368B0
:1040D00001331360FFF796FE324D334F2B68A34236
:1040E0004FF0000B11D93A68304BD16A14224A4381
:1040F0009A58022A28BF4FF0010B2D4A1268002A55
:104100000CBF58460120BDE8F88FDFF888A0DFF823
:10411000A890DAF8002012681AB94FF0FF322A602E
:10412000E1E7DAF80020D268D66871688C4201D2E3
:104130002960D8E706F104084046FFF73AF9B16A6A
:1041400019B106F11800FFF734F9F06AD9F8003018
:10415000012202FA00F11943144BC9F800104FF084
:10416000140C41460CFB0030FFF700F93868F16A87
:10417000C26A914228BF4FF0010BCAE70D4A13688B
:10418000013313604FF0000BB7E700BF601200105F
:10419000CC120010841100103ACD000088110010DC
:1041A0009C12001098120010801100108C11001049
:1041B000D01200105C120010681200102DE9F843B4
:1041C0002F4C23682BB92F4940F68500FEF7E8FCF9
:1041D000FEE7FEF75FFF2368013B236024682CB1F4
:1041E0000024FEF779FF2046BDE8F883264B1B68C4
:1041F000002BF5D0254D264EDFF8A8801FE0EB6898
:10420000DC6804F1040904F11800FFF7D2F848460D
:10421000FFF7CFF8E26A3168012707FA02F31420AA
:104220000B4300FB028049463360FFF79FF8194BB0
:10423000E26A1B68DB6A9A4201D3174B1F602B6846
:10424000002BDCD10CB1FFF7DDFD144D2C6844B11F
:10425000114E0127FFF720FF00B13760013CF9D173
:104260002C600D4B1B68002BBAD00D4B4FF08052C9
:104270001A60BFF34F8FBFF36F8F0124B1E700BF08
:10428000601200109FCD000058120010A012001004
:104290006812001080110010D01200105C12001083
:1042A00004ED00E08C11001008B540B90D4B4FF043
:1042B00080521A60BFF34F8FBFF36F8F08BD0A4B58
:1042C000196829B1094940F23C50FEF769FCFEE744
:1042D000FFF7DAFEFFF7F4FDFFF770FF0028E5D0E7
:1042E000ECE700BF04ED00E06012001055CC0000C8
:1042F00038B5274B1A68274B12B101221A6038BD16
:104300001A60FEF779FC244A244C1568A84204D9A7
:1043100021688B6C5B1B03448B64236810601B6BF0
:104320001A68B2F1A53F0BD15A68B2F1A53F07D187
:104330009A68B2F1A53F03D1DB68B3F1A53F04D081
:10434000206821683431FEF70DFC154B1B68B3FA69
:1043500083F3DBB2C3F11F03142212495A438818B6
:104360008D582DB9104940F6B730FEF719FCFEE71D
:10437000456808326D6845600A44954204BF6A6822
:104380004260142202FB03135B68DB682360B6E71C
:1043900060120010D0120010541200108011001092
:1043A000681200108C110010A0CC000010B50C4653
:1043B00028B9084940F6CE30FEF7F2FBFEE7064B7F
:1043C00019681831FEF7DEFF20460121BDE81040D4
:1043D000FFF776BD6FCC00008011001038B5C368C0
:1043E000DC682CB9164940F62940FEF7D9FBFEE7F8
:1043F00004F118052846FEF7DCFF124B1B68E3B9F1
:10440000251D2846FEF7D5FF0F49E26A08680123FB
:10441000934003430B600D4B1420294600FB0230F0
:10442000FEF7A4FF0A4BE26A1B68DB6A9A4283BF6D
:10443000084B01201860002038BD29460648EFE7E8
:1044400090CD000060120010681200108C11001056
:1044500080110010D0120010A0120010034B1B6836
:104460000360034B1B684360704700BF9C12001041
:10447000CC12001070B50C46054628B9164940F616
:104480009440FEF78DFBFEE729B9144940F69540AC
:10449000FEF786FBFEE7FEF7FDFD114B196823686A
:1044A0005A1C10D00F482E6800686A68864201D0F6
:1044B0008A420FD9881A83420AD95B1A13442360AF
:1044C0002846FFF7CBFF0024FEF706FE204670BD0E
:1044D000002323600124F7E791CC0000E7CC000023
:1044E000CC1200109C120010014B01221A60704780
:1044F000D0120010054B1B6833B1054B1B68002B15
:104500000CBF02200020704701207047B412001039
:10451000601200102DE9F0410446002835D0234AEE
:10452000C36A1168C96A8B42174636D28269204D28
:10453000002AA1BF3A68D26AC2F10A028261142637
:10454000426906FB03539A4221D100F10408404618
:10455000FEF72FFF174B48B9E06A4643AA592AB91C
:104560001A680121814022EA01021A603A6819683A
:10457000D26AE262012404FA02F0084318601420AF
:10458000414600FB0250FEF7F1FE204603E03B6887
:10459000DB6AC3620120BDE8F0811368006CDC6A4D
:1045A000A0422CBF00200120F5E700BF80110010C1
:1045B0008C11001068120010F8B5044608B90020EC
:1045C000F8BD1F4B1B68834205D01E4940F6D170D1
:1045D000FEF7E6FAFEE75B6C2BB91B4940F6D2709A
:1045E000FEF7DEFAFEE7C16A026C013B91424364CA
:1045F000E5D0002BE3D1051D2846FEF7DAFE134E69
:10460000134A50B9E76A1421794373582BB91368D8
:104610000120B84023EA00031360236CE362C3F176
:104620000A01A1611168012404FA03F00843106033
:10463000142000FB03602946FEF798FE2046BFE7E2
:104640008011001065CD00007BCD00008C110010A2
:1046500068120010F8B50446002847D0426C2AB909
:1046600023494FF48150FEF79BFAFEE7036C994211
:1046700038BF1946C36A8B4238D0012A36D11D4A49
:104680001268824205D11C4941F23B00FEF788FACC
:10469000FEE78269194DC162002A4FF01406426993
:1046A000A8BFC1F10A0106FB0353A8BF81619A426A
:1046B0001CD1071D3846FEF77CFEE26A104C40B95B
:1046C0005643AB592BB923680121914023EA0103DA
:1046D00023602168012393400B4314202360394653
:1046E00000FB0250BDE8F840FEF740BEF8BD00BF39
:1046F0007BCD0000801100107BCC00008C110010DD
:1047000068120010044B1A681AB119684A6C013219
:104710004A641868704700BF8011001010B5FEF79A
:104720006BFA064B064A196829B1196814688B6C34
:104730001B1B03448B64106010BD00BF8011001070
:104740005412001008B5FEF757FA014B186008BD67
:104750005412001038B501220221002000F0C3F8E5
:1047600001220321002000F0BEF8042200210120D4
:1047700000F0B9F801210422084600F0B4F8042240
:104780001146012000F0AFF80821012000F01AF9CD
:10479000284B4FF480729A610921012000F0EEF855
:1047A00002220A21002000F09EF802220B21054679
:1047B000002000F098F80446284600F0A9F82046AA
:1047C00000F0A6F80321022000F0FCF81A4B1B4D64
:1047D00018701A21012000F0F5F8194B194C1870C7
:1047E0001821012000F0EEF8174B1221187001205B
:1047F00000F0E8F8154B13211870012000F0BEF806
:104800000F212870012000F0B9F81E21207000202F
:1048100000F0B4F80E4B1D211870002000F0AEF827
:104820000C4B1870287800F083F82078BDE83840E9
:1048300000F07EB820800920D4120010D812001099
:10484000D5120010D9120010D6120010D712001085
:10485000DA120010DB120010024B4FF48072DA61A2
:10486000704700BF20800920024B4FF480729A618C
:10487000704700BF20800920034B586980F4007006
:10488000C0F34020704700BF20800920014B1878FA
:10489000704700BFD4120010014B1878704700BF5A
:1048A000D5120010014B1878704700BFD6120010C7
:1048B000014B1878704700BFD7120010C0F3C40333
:1048C00000F007029B0003EBC21303F1804303F5E2
:1048D000303301F007011A6822F007021A601A68E3
:1048E00011431960704738B500F007054FF000001C
:1048F00001F01F0465F3020064F3C7001146FFF7DF
:10490000DDFF4FF0000065F3020064F3C70038BD1F
:10491000C0F3C40300F007029B0003EBC21303F1D2
:10492000804303F530331A6842F480621A6070479E
:10493000C0F3C40300F007029B0003EBC21303F1B2
:10494000804303F530331A6822F018021A601A689F
:1049500042F008021A60704700F00702064B53F855
:104960002210C0F3C4000B68012202FA00F023EA0F
:1049700000030B60704700BFB4CD000038B500F0F5
:1049800007054FF0000001F01F0465F3020064F317
:10499000C700FFF7E1FF4FF0000065F3020064F38A
:1049A000C70038BD00F00702054B53F82220C0F3C2
:1049B000C40311680120984008431060704700BF8D
:1049C000B4CD000038B500F007054FF0000001F04D
:1049D0001F0465F3020064F3C700FFF7E3FF4FF025
:1049E000000065F3020064F3C70038BD00F0070261
:1049F000064B53F82230C0F3C4005A69012303FA6E
:104A000000F0104214BF184600207047B4CD0000DB
:104A100000F00702044BC0F3C40053F82220012326
:104A200003FA00F090617047B4CD000000F0070277
:104A3000044BC0F3C40053F82220012303FA00F012
:104A4000D0617047B4CD000008B50146FFF7CEFF36
:104A500020B10846BDE80840FFF7E8BF0846BDE8BA
:104A60000840FFF7D5BFFFFF2DE9F8430F4F0C2497
:104A700044433E19884635792846914600F00AFAA3
:104A80003C5900233F2263604946A36028462260C8
:104A90006361B268A361E3612362636200F01EFA9E
:104AA0000123C4F80C806360BDE8F883CCCD00001E
:104AB0000C235843064B1B5830B501205C6901EBB1
:104AC0004105A84020435861183343F8212030BDE8
:104AD000CCCD00000C235843034B1A58012303FA92
:104AE00001F11160704700BFCCCD00000C2358438A
:104AF000014B1B5898687047CCCD00000C235843DD
:104B0000014B1B5899607047CCCD00002DE9F04156
:104B1000044617461E468846FFF7ECFC0021054672
:104B2000A068FEF7AFFF00232374069BA361079BD9
:104B3000E361236884F811802022022DA774666146
:104B40001A600BD140F6B831A068FEF79BFF18B190
:104B5000207CB0FA80F04009BDE8F0810021A06817
:104B6000FEF790FF0028F9D0F2E7FFFF03685A68CC
:104B7000282A13B557D00AD8102A2CD0182A32D098
:104B8000082A09D1417C01F0FE01996028E0402A01
:104B900063D00DD8382A77D05A68027420229A61DF
:104BA00010221A6008229A611A68D206FCD426E004
:104BB000502A5BD0582AEFD14269996811700022BF
:104BC000C26120229A6110221A6008229A611A6832
:104BD000D106FCD413E0427C42F001029A60082224
:104BE0009A6102B010BDC469202199610822C4B93C
:104BF0009961102119609A611A68D106FCD40023CA
:104C000001A980680193FEF74DFE019B002BE8D0BF
:104C10001F4B4FF080521A60BFF34F8FBFF36F8F5F
:104C2000DFE7817CB1E7427CD20702D520221A60FF
:104C3000D5E7C2694AB920229A6110221A60082277
:104C40009A611A68D406FCD4D9E78169013A11F84F
:104C5000014B9C608161C261C1E720229A61C269F7
:104C6000012A4FF00402E2D89A61B8E742699968D4
:104C70001170426901324261C269013A012AC2617E
:104C80004FF00402D3D1EFE75B680374B7E700BFCE
:104C900004ED00E00148FFF769BF00BF7C00001091
:104CA0000148FFF763BF00BF5C0000100148FFF739
:104CB0005DBF00BF3C0000102DE9F043264B0646C7
:104CC0001546894693E8070085B004AB03E9070061
:104CD00040F60A33ADF800300C238DF802301F4A3D
:104CE0007301D718D45804AB3344032200210120A8
:104CF00013F8108CFEF77EFCB8600120FEF761FD12
:104D0000F860404600F0C6F86C23A361144A154BC6
:104D1000914588BF99462823B5FBF9F25208C8216E
:104D20005343B3FBF1F323613C235A430023B2FB0B
:104D3000F1F26261A36263622362E3604023236055
:104D400004AB03EB86067A6856F80C1C404605B0A7
:104D5000BDE8F04300F0C2B814CE00003C000010E3
:104D600040420F00A08601002DE9F3410F46904616
:104D70001D4623B90025284602B0BDE8F0810E4C3F
:104D800004EB40144FF0FF31E068FEF77BFE002893
:104D9000F0D00026089B019342462B4647F00101C4
:104DA00000962046FFF7B2FE3346054632463146AE
:104DB000E068FEF743FCDEE73C0000101FB500236F
:104DC0008DF80F30012300930DF10F03FFF7CCFF97
:104DD0009DF80F0005B05DF804FBFFFFF7B50E4628
:104DE00017461D461BB90025284603B0F0BD0E4CE2
:104DF00004EB40144FF0FF31E068FEF743FE00285B
:104E0000F1D0089B3A46CDE9005306F0FE0100239D
:104E10002046FFF77BFE002305461A461946E06848
:104E2000FEF70CFCE0E700BF3C0000101FB50022BD
:104E300000920DF10F038DF80F20FFF7CFFF05B0A3
:104E40005DF804FB1FB58DF80F30012300930DF1C1
:104E50000F03FFF7C3FF05B05DF804FBFEE7FFFF9C
:104E600008B5FFF75BFC084B084A1B78103BDBB228
:104E700052F823309847064B00221A601B68BDE8A1
:104E80000840FFF75FBC00BF04ED00E09C0000108D
:104E9000DC120010592809D8054B064A185CD2F8D4
:104EA000C410012383400B43C2F8C430704700BFD5
:104EB0002FCE000000C00F4059289FBF054B064A67
:104EC000D3F8C430105C9ABF23FA00F000F0010060
:104ED0000020704700C00F402FCE0000592808BFA7
:104EE0001920084B43F8201043B2002B08DB0122A5
:104EF00000F01F0002FA00F05B09034A42F82300A9
:104F0000704700BF9C00001000E100E0014B1878E2
:104F1000FFF77EBDE3120010014B1878FFF786BD46
:104F2000E3120010014B1878FFF760BDE01200108B
:104F300070B506464FF416600D4600F0B3F9FFF762
:104F4000F1FFA0B10C4C2078FFF770FD022000F0BB
:104F5000CBF9304600F0C8F9280A00F0C5F9E8B2EC
:104F600000F0C2F92078BDE87040FFF751BD052080
:104F7000FDF7DEFBE3E700BFE112001038B50446A1
:104F80004FF4166000F08EF9FFF7CCFFC8B10F4D5B
:104F90002878FFF74BFD032000F0A6F9204600F02B
:104FA000A3F9002000F0A0F9000200F47F440020E3
:104FB00000F09AF90443A4B22878FFF729FD2046AF
:104FC00038BD0520FDF7B4FBDEE700BFE11200109D
:104FD00008B5002048F60401FFF7AAFF6420BDE8E9
:104FE0000840FDF7A5BBFFFF10B5184C2078FFF770
:104FF0001DFD6420FDF79CFB2078FFF709FDFFF7FE
:1050000091FF48B9124801F01BFEFFF78BFF002803
:10501000FBD0104801F014FE0F4B1878FFF7F8FC96
:105020000E4B1878FFF7F4FC6420FDF781FBFFF7C7
:10503000CFFF4FF440410320FFF77AFF43F23221C4
:105040000B20BDE81040FFF773BF00BFE212001055
:1050500089CE000098CE0000E1120010E31200108B
:1050600038B52A482A4C2B4D01F0EAFD00220121D7
:105070000220FFF738FC2070FFF794FC0022042187
:105080000220FFF730FC244B1870FFF765FC00226C
:1050900006210220FFF727FC2870FFF783FC00227F
:1050A0001D210120FFF71FFC1C4B1870FFF77AFC35
:1050B0002878FFF7ADFC2078FFF7AAFC184801F02C
:1050C000BFFD4FF4FA5000F0EDF8164801F0B8FDBE
:1050D000FFF78AFF0120FFF751FF0146124801F058
:1050E00015FD4FF408410020FFF722FF0020FFF7D5
:1050F00045FF01460D4801F009FD0120FFF73EFF85
:1051000010F0F00018BF012038BD00BFAACE00008B
:10511000E3120010E1120010E0120010E212001081
:10512000B9CE0000CBCE0000DECE0000F6CE0000EF
:1051300038B50546FFF758FFFFF7F4FE0028FBD00F
:10514000254C4FF402610020FFF7F2FE2078FFF7B4
:105150006DFC532000F0C8F8EF2000F0C5F86E2079
:1051600000F0C2F8284600F0BFF8002000F0BCF8BC
:10517000002000F0B9F8002000F0B6F8002000F0A0
:10518000B3F82078FFF744FC4FF4FA70FDF7D0FA3B
:105190002078FFF74BFC452000F0A6F8782000F0BF
:1051A000A3F8692000F0A0F8742000F09DF800201A
:1051B00000F09AF8002000F097F8002000F094F832
:1051C000002000F091F82078FFF722FC0348BDE8AA
:1051D000384001F035BD00BFE312001008CF0000D9
:1051E00073B54FF0FF33B1F5805F019336D21D4C9C
:1051F0002369DE0734D41C4B1D69ED0730D41B4DE9
:105200000326AE602E611A4D1D6002B301AE5E60D2
:1052100041F00046DE6041F20F061E61DAB1206007
:1052200041F0806140F68112E16065602261114ABF
:10523000516A41F003015162D868C0F30B000028A5
:10524000FAD1536A23F00303536202B070BD586071
:1052500041F00846DEE701AA2260E3E70120F4E717
:105260000220F2E7000108202001082000000820A9
:1052700008C00A4000C00A4010B50446FAF7CEFF45
:105280004FF47A73B0FBF3F00223B0FBF3F2A242C7
:1052900002D8034A136110BD0233DBB2F5E700BF49
:1052A00000C00A4010B504462420FFF7F3FD0B4B65
:1052B00007221A6002225A602046FFF7DDFF1A20FB
:1052C000FFF7E8FD064B01221A631A6BD207FCD5E3
:1052D000044A0023936042F8183C10BD00C00A4005
:1052E0000000082020010820034B9860DA68D206ED
:1052F000FCD49868C0B2704700C00A400122FFF792
:105300006FBF0022FFF76CBF02689368C3F34203CC
:10531000022B73B5064623D0062B21D0012B34D1A6
:1053200000248DF803400194102501AA0DF103011A
:10533000B068FEF767FC48B133689DF803201A7027
:10534000019B002B18BF0124013DEED10CB3124B81
:105350004FF080521A60BFF34F8FBFF36F8F18E08A
:105360000024019433681A7DD207EFD51B788DF89D
:10537000033001AA00230DF10301F068FEF734FAAF
:10538000019B002B18BF0124ECE7137DDBB20193D6
:10539000019B02B070BD00BF04ED00E00148FFF7C3
:1053A000B3BF00BF700100100148FFF7ADBF00BFE1
:1053B000600100100148FFF7A7BF00BF50010010B7
:1053C0000148FFF7A1BF00BF40010010134B70B5AB
:1053D00016460546185C0C463601FFF75BFDB4FB2C
:1053E000F6F307EE903AF8EE677AB6EE007A77EECB
:1053F000877A2D01FCEEE77A094A17EE903A525966
:105400009BB280211173190ADBB211711370102342
:1054100082F828300723137370BD00BF44CF00000B
:1054200040010010074B10B50446185CFFF744FD1F
:1054300030B12401044B1B59187B003018BF0120E8
:1054400010BD00BF44CF000040010010034B03EB30
:1054500000108068003018BF012070474001001024
:105460002DE9F843074689469046FFF7DBFF0646DD
:1054700018B900263046BDE8F883144C3D01631985
:10548000DA6822B9B9F1000F01D0C3F80C906319A2
:105490009A6822B9B8F1000F01D0C3F808806319E7
:1054A000DA68002AE5D09A68002AE2D05A68084BE8
:1054B00053F82710074BD85DFFF710FD63594122C1
:1054C0001A7206221A7207225A60D3E740010010AE
:1054D00034CF000044CF000038B5074A03010D4621
:1054E000D458FFF79FFF30B1237D9A06FCD5257075
:1054F000237D9B06FCD538BD4001001070B50446E5
:105500000E461546FEF7F6FF0E4B03EB0413DC6860
:10551000B4B1022814D16B1C09D04FF47A70A5FBEA
:1055200000014FF47A72002300F076F805462A460F
:1055300031462046FEF708FA003018BF012070BD42
:105540000020FCE7400100102DE9F84305460E4617
:10555000114CFEF7CFFF2F01E31981462846D3F8FF
:105560000C80FFF75FFF98B1B9F1020F0AD1B8F1D3
:10557000000F07D0314628464FF0FF32BDE8F84310
:10558000FFF7BCBFE3591A7DD207FCD51B783370F7
:105590000020BDE8F88300BF40010010F7B50546C4
:1055A0001C4E8DF807102D011746FEF7A3FF731947
:1055B0009C6854B302282BD1791C09D04FF47A701F
:1055C000A7FB00014FF47A72002300F025F807468C
:1055D00000233A460DF107012046FEF72FF8041C80
:1055E00018BF0124FDF756FD731975592A7D52061F
:1055F00009D500220DF107019868FEF703FB10B1F1
:105600009DF807302B70FDF767FD204603B0F0BD15
:105610000024FAE74001001053B94AB9002908BF35
:1056200000281CBF4FF0FF314FF0FF3000F074B97D
:10563000ADF1080C6DE904CE00F006F8DDF804E0E9
:10564000DDE9022304B070472DE9F047089E0446C7
:105650008846002B40F085808A42154648D9B2FA28
:1056600082F24AB1C2F1200701FA02F320FA07F7E9
:10567000954047EA030894404FEA154E230CB8FBC7
:10568000FEF71FFA85FC0EFB178843EA084307FB69
:105690000CF1994209D9EB1807F1FF3080F0E38053
:1056A000994240F2E080023F2B445B1AA4B2B3FB64
:1056B000FEF00EFB103344EA034400FB0CFCA4454F
:1056C00009D92C1900F1FF3380F0CB80A44540F2BA
:1056D000C88002382C4440EA0740A4EB0C040027A1
:1056E0001EB1D4400023C6E900433946BDE8F08727
:1056F000002A53D0B2FA82F2002A40F0B680491B49
:105700004FEA154E1FFA85F80127B1FBFEFC230C6A
:105710000EFB1C1143EA014308FB0CF1994207D927
:10572000EB180CF1FF3002D2994200F2EC80844673
:10573000591AA3B2B1FBFEF00EFB101443EA044465
:1057400008FB00F8A04507D92C1900F1FF3302D25D
:10575000A04500F2DC801846A4EB080440EA0C40A7
:10576000BEE78B4208D9002E78D00027C6E9000199
:1057700038463946BDE8F087B3FA83F77FB98B42E4
:1057800002D3824200F2BD80841A61EB0303012040
:105790009846002EA9D0C6E90048A6E7FFDEC7F16B
:1057A0002005BB4022FA05FC4CEA030C01FA07F481
:1057B00020FA05F821FA05F34FEA1C4E48EA0404E2
:1057C000B3FBFEF9210C0EFB19331FFA8CF841EAEA
:1057D000034309FB08FA9A4502FA07F200FA07F1B7
:1057E0000BD91CEB030309F1FF3080F088809A4548
:1057F00040F28580A9F102096344A3EB0A03A4B235
:10580000B3FBFEF00EFB103344EA034400FB08F840
:10581000A04508D91CEB040400F1FF336BD2A0456E
:1058200069D90238644440EA0940A4EB0804A0FBAB
:1058300002894C45C6464B4654D351D0002E69D000
:10584000B1EB0E0264EB030404FA05F522FA07F348
:10585000FC401D43C6E90054002746E73746304662
:1058600043E7184637E707461FE7C2F1200320FA4F
:1058700003F7954001FA02F021FA03F34FEA154EBF
:105880003843010CB3FBFEF71FFA85F80EFB173304
:1058900041EA034107FB08F38B4204FA02F407D9FB
:1058A000691807F1FF3C28D28B4226D9023F2944D0
:1058B000CB1A81B2B3FBFEF00EFB103341EA034179
:1058C00000FB08F38B4207D9691800F1FF3C10D2A6
:1058D0008B420ED902382944C91A40EA074714E717
:1058E0004145ABD2B8EB020E69EB0C02013813460E
:1058F000A4E76046F0E7184695E76746D8E7814693
:105900007BE7384645E7ACF1020C2B4410E7023840
:105910002C4421E73746E8E6704700BF0A22002101
:1059200002F086B90EB403B5014603AB054853F83F
:10593000042B0068019300F09DF902B05DF804EBC0
:1059400003B070478001001070B50E46144605463E
:1059500018B183690BB903F00DFA2B4B9C421ED191
:105960006C68636EDA0705D4A3899B0502D4A06D29
:1059700000F06BF8A38918071BD52369CBB1013E52
:1059800016F8011F39BB656E15F0010539D1A389E1
:10599000990502D4A06D00F059F8284670BD1B4B44
:1059A0009C4201D1AC68DCE7194B9C4208BFEC6813
:1059B000D7E72146284602F0FFF90028DFD0636EC2
:1059C000DA0705D4A3899B0502D4A06D00F03EF848
:1059D0004FF0FF35E1E7A368013B002BA36004DA39
:1059E000A269934206DB0A2904D023685A1C22606C
:1059F0001970C5E72246284602F08CF90130BFD164
:105A0000DDE70D46C9E700BF18D1000038D100001E
:105A1000F8D00000024B0A4601461868FFF794BF11
:105A200080010010074B10B51C6824B1A36913B99D
:105A3000204603F09FF961682046BDE8104003F05E
:105A40007BBD00BF80010010704770477047FFFFAB
:105A5000024B0146186800F089B800BF80010010B1
:105A6000024B0146186800F033B800BF80010010F7
:105A70000A44914200F1FF3300D1704710B511F88C
:105A8000014B03F8014F9142F9D110BD884210B586
:105A900001EB020302D983421C4607D8421E9942F9
:105AA00008D011F8014B02F8014FF8E783189A1A51
:105AB0009A4200D110BD14F8011D03F8011DF7E74B
:105AC00002440346934200D1704703F8011BF9E7F3
:105AD00038B50546002945D051F8043C0C1F002B71
